:100000000C9477000C949F000C949F000C949F001C
:100010000C949F000C949F000C949F000C949F00E4
:100020000C949F000C949F000C949F000C94B507B7
:100030000C949F000C949F000C949F000C949F00C4
:100040000C94FD0F0C949F000C94C1130C94F313AB
:100050000C949F000C949F000C949F000C949F00A4
:100060000C94790B0C949F00CA06A307F705A3070D
:100070006D06A307D6057C05A307A307A307A3075F
:10008000E8069A04A3076605A307BB05000000085D
:10009000000201000003040700000000000000004F
:1000A000010204081020408001020408102001020F
:1000B00004081020040404040404040402020202DC
:1000C00002020303030303030000000023002600D1
:1000D000290000000000250028002B00000000007F
:1000E000240027002A006603970AF90F231411241D
:1000F0001FBECFEFD8E0DEBFCDBF11E0A0E0B1E082
:10010000E0E8FDE202C005900D92A23EB107D9F7EA
:1001100024E0A2EEB1E001C01D92AB35B207E1F7D9
:1001200010E0CEEED0E004C02297FE010E944515FB
:10013000C63ED107C9F70E9467140C94BE160C94F2
:100140000000833028F4E82FF0E0E557FD4F60838E
:100150000895833008F062C0482F440F440F440FC5
:10016000485F453108F044E1582F550F550F550FA2
:1001700090E071E05417E8F42EEF250F2231B0F42F
:10018000E52FF0E0DF01AC58BD4F2C91223070F428
:10019000972BEE0FFF1FE75BFD4F21E030E0A72F0D
:1001A000A62311F420E030E031832083770F5F5FD6
:1001B000E1CF81110AC09C7FF8942BB1892F8095E3
:1001C00082239623892B8BB928C08130C9F46923F7
:1001D000F89425B1892F8F7380958223262F2F7352
:1001E000822B85B988B16295669566956370929504
:1001F00096959695937090959823692B68B90DC044
:100200009F70F89428B1892F880F880F80958223DA
:100210006923660F660F862B88B978940895863017
:10022000C0F440918E0250918F0221E030E002C074
:10023000220F331F8A95E2F7672B29F4209530951A
:100240002423352302C0242B352B30938F02209397
:100250008E0208950F931F93CF93DF93EB018431A8
:1002600070F5082F10E0F801EC58FD4F90819330A5
:1002700091F0943021F582508C30D0F498012250C6
:100280003109C901880F991F820F931F8E519E4F0C
:100290000E9452090DC0833041F09BEF980F9230BD
:1002A00020F097EF980F933018F4BE010E940011D0
:1002B000F801EE0FFF1FE75BFD4FD183C083DF9195
:1002C000CF911F910F910895DC01ED91FC91019068
:1002D000F081E02D09941F93CF93DF93162FC82F41
:1002E000D0E0FE01EF58FD4F90811923C857DD4F34
:1002F000411103C09881911741F0412F50E0682FC0
:1003000086E793E00E940E0E1883DF91CF911F9134
:10031000089580918B02882349F069B18091710220
:1003200068236C7F40E080E00E946B0180918C022A
:10033000882379F063B186B120E4829FC001112443
:100340006F73682B80917202682340E081E00E9405
:100350006B0180918D02882359F066B16C736695AC
:10036000669580917302682340E082E00C946B01F3
:100370000895109208028FEF80930A0108958F92DA
:100380009F92BF92CF92DF92EF92FF920F931F93B3
:10039000CF93DF9300D0CDB7DEB7B82E4B01C82E78
:1003A000D12C86010C581D4FF8018081863049F40C
:1003B00080910802882329F06630710511F00E94AF
:1003C000B9014EEF4B0D4C30B0F484E08816910427
:1003D00091F0C60102977C01EE0CFF1CE80EF91E9D
:1003E000F701EE51FE4F7F01CF014A830E94B7090A
:1003F0004A818111D0C092EF9B0D963078F461E074
:1004000070E0F2E08F16910411F060E070E0892F47
:100410004A8399830E940F0199814A814231D8F41D
:10042000EB2DE695E695E6958B2D8770F0E0EF587D
:10043000FD4F21E030E0082E01C0220F0A94EAF7B8
:100440008114910421F48081822B808304C0209543
:10045000808128232083F601EE0FFF1FE75BFD4F0D
:100460001182108282E088169104A1F03CF481147C
:100470009104F9F08A94892851F17AC0F4E08F163A
:10048000910409F448C084F196E08916910409F4B6
:1004900067C06EC0963008F084C0423140F460E01E
:1004A0008B2D0E94881160E08B2D0E94C11182E08B
:1004B0005CC0423108F075C060E08B2D0E9488114D
:1004C00060E08B2D0E94C111F80110826AC0423198
:1004D00008F067C060E08B2D0E94C11161E08B2D98
:1004E0000E94881181E041C0F3E0BF1649F08BEF14
:1004F0008B0D823028F087EF8B0D833008F051C0D0
:1005000061E08B2D0E94881160E070E08B2D0E94CD
:10051000001183E02AC04C3008F043C084E0F801A9
:100520008083C60102978C01000F111F080F191F4D
:100530000E511E4FC8010E94B709811132C0B60189
:10054000C8010F900F90DF91CF911F910F91FF90F5
:10055000EF90DF90CF90BF909F908F900C940B09FD
:100560008EEE8B0D8230E8F486E0F801808319C0AE
:100570006EE071E086E793E00F900F90DF91CF91EE
:100580001F910F91FF90EF90DF90CF90BF909F90C1
:100590008F900C94840EC7014A830E9411094A81EE
:1005A0002ACF0F900F90DF91CF911F910F91FF9065
:1005B000EF90DF90CF90BF909F908F900895CF9352
:1005C000C0E08EEE8C0F823028F466E070E08C2F55
:1005D0000E94BF01CF5FC431A1F781E08093080280
:1005E00086EB92E0CF910C945D0ACF938091080244
:1005F00081110E94B90110928B0210927102109227
:10060000880210928C02109272021092890210924B
:100610008D021092730210928A02C0E082EF8C0F5A
:10062000863018F462E070E002C061E070E08C2F68
:100630000E94BF01CF5FC43189F710928F021092E0
:100640008E02CF91089523E042E06FE171E086E7EA
:1006500093E00E94480D4AE251E060EE86E793E0A5
:100660000E94880E49EA50E060E986E793E00E9424
:10067000880E4FE051E060EC86E793E00E94880E20
:1006800041EA50E060ED86E793E00E94880E4FEB70
:1006900051E064EF86E793E00E94880E49E754E05A
:1006A00060EF86E793E00E94AB0E45EF52E06FEFFC
:1006B00086E793E00E94A50E40E051EE60E070E016
:1006C00086E793E00E94E20F0C94F502CF93DF934C
:1006D000C2EED1E0CE010E947108239682E0C630BE
:1006E000D807C1F7DF91CF910895DF92EF92FF9283
:1006F0000F931F93CF93DF93F82EEB01D42E6F3F10
:100700008FEF7807A9F06F2D86EB92E00E94770AB1
:100710006C2F86EB92E00E941E0A86EB92E00E940C
:10072000940A80910602909107020E949E1002C0D6
:10073000C0E0D0E04D2D6F2D86EB92E00E94740A50
:100740000D2D10E086EB92E00E94C60908171907EC
:10075000B1F4F0920902C0930A02EBE0EE2EE2E05F
:10076000FE2EC0E0D0E0C017D107CCF486EB92E0BB
:100770000E94CE09F70181937F012196F4CF86EB89
:1007800092E00E94C609801791071CF461E371E0B2
:1007900002C069E571E086E793E00E94840E42E0C2
:1007A0004D0D29E032E067E786E793E0DF91CF91D6
:1007B0001F910F91FF90EF90DF900C943C0E8F9261
:1007C0009F92AF92BF92CF92DF92EF92FF920F93E0
:1007D0001F93CF93DF930E94890186E793E00E94E5
:1007E0009A0D892B29F086E793E00E94CE0EF5CF73
:1007F0000E9447106093450270934602809347021F
:1008000090934802C0904102D0904202E09043028F
:10081000F090440240910B0150910C014A01AA242E
:1008200097FCA094BA2C8B019C010C191D092E0970
:100830003F0980169106A206B30608F04DC0D50107
:10084000C4018C0D9D1DAE1DBF1D80934102909370
:100850004202A0934302B0934402C4E7D2E012EFF5
:100860001630C0F488818230A9F420918E02309134
:100870008F02012E02C0359527950A94E2F720FFDA
:1008800009C0812F0E94E310AC01612F86E793E03D
:100890000E94F50D1F5F2196163011F780910A0115
:1008A00087FD1AC0C0E08C2F90E020910A01332709
:1008B00027FD3095281739077CF0FC01EE0FFF1F4C
:1008C000E80FF91FE75DFD4F618170E04281808193
:1008D0000E947503CF5FE7CFDF91CF911F910F91FA
:1008E000FF90EF90DF90CF90BF90AF909F908F9050
:1008F00008959F92AF92BF92CF92DF92EF92FF92B4
:100900000F931F93CF93DF93CDB7DEB729970FB621
:10091000F894DEBF0FBECDBF262F8A0190E0FC0108
:10092000E956F109E231F10508F00DC3EC5CFF4F27
:100930000C944315DA0111968C91982F987185FFCC
:1009400003C060E871E054C0FA018081983081F101
:1009500058F49111F8C2682F86EB92E029870E9423
:10096000770A52E0F52E07C0903109F43BC0983168
:1009700009F468C0E8C22985F21688F4F801EF0D81
:10098000F11D81816081F0E88F9F6019112486EB51
:1009900092E029870E941E0AF394F394ECCF86EB31
:1009A00092E00E94940A86E490E00E949E10CBC2DE
:1009B00093816281263061F425814481B0E82B9FC8
:1009C00040191124E0E89E9F6019112470E007C0CF
:1009D000462FF0E89F9F401911246FEF7FEF0E9490
:1009E0007503B1C220910A0127303CF06CEA71E036
:1009F00086E793E00E94840EA6C22F5F20930A012F
:100A0000332727FD3095F901EE0FFF1FE20FF31F8B
:100A1000E75DFD4F8083D80113969C911397129642
:100A20008C91B0E89B9F801911248183D801159681
:100A30009C91159714968C91B0E89B9F8019112476
:100A4000828381C260910A01161634F470E0462F49
:100A5000552747FD50950FC08FEF80930A0173C251
:100A6000F901EE0FFF1FE20FF31FE75DFD4F8083DB
:100A7000811123C07F5F272F30E04217530784F78F
:100A800070E01BC07830C0F49C012F5F3F4FD9014C
:100A9000AA0FBB1FA20FB31FA75DBD4F2C91FC0176
:100AA000EE0FFF1FE80FF91FE75DFD4F20838C91CC
:100AB000818312968C9182837F5F872F90E0481705
:100AC000590704F7615060930A013DC2FA01208181
:100AD0008181F0E88F9FC0011124820F911D009742
:100AE00021F0909307028093060280910802811101
:100AF0002AC20E94DF0227C2653008F424C2DA014C
:100B0000DC901196CC9011971296BC901297139688
:100B1000AC90139714969C908EEF8D0D8C3008F04E
:100B200012C2ED2CF12CB701625071098B01000F3C
:100B3000111F060F171F0E511E4FC8010E94B70943
:100B4000882319F0C8010E941109B0E89B9E90010A
:100B500011242A0D311DE0E8BE9EA00111244C0D88
:100B6000511DB701C8010E948D0864E070E08D2D11
:100B70000E94BF01E8C1623008F4E5C1DA012C919E
:100B800011968C91B0E88B9FC0011124820F911DAA
:100B900090930C0180930B010A970CF0D4C18AE06A
:100BA00090E090930C0180930B01CDC1623008F46A
:100BB000CAC1FA01618170E02230A1F08281F0E8BF
:100BC0008F9FC0011124682B792B233059F0DA0153
:100BD00013968C9190E090E4899F902D88271124A2
:100BE000682B792BF80180810E942A01ACC160EF4B
:100BF00070E08AEB93E00E9464016CE670E08AEB9F
:100C000093E00E9464011EEF84EF810F863068F448
:100C100062E070E08AEB93E00E9464016AE070E0B9
:100C20008AEB93E00E9464010FC0113069F463E025
:100C300070E08AEB93E00E94640168E070E08AEB68
:100C400093E00E94640108C08DEF810F823078F339
:100C500089EF810F833058F31C3060F464E070E05A
:100C60008AEB93E00E9464016EE070E08AEB93E00F
:100C70000E94640180EF810F823060F466E070E0D2
:100C80008AEB93E00E94640161E070E08AEB93E0FC
:100C90000E9464016FE770E08AEB93E00E946401B8
:100CA0001F5F123191F1123108F0AECF60E08AEB94
:100CB00093E00E94FA1261E070E08AEB93E00E94F8
:100CC000640161E08AEB93E00E94FA1261E070E057
:100CD0008AEB93E00E94640197CF662309F433C145
:100CE000DA010C9160EF70E08AEB93E00E946401FE
:100CF0006EE670E08AEB93E00E946401602F8AEB5D
:100D000093E00E94FA12043138F067EF70E08AEB4A
:100D100093E00E94640117C110E0F801EC58FD4F08
:100D200060818AEB93E00E94FA12000F111FF80114
:100D3000E75BFD4F7F01608171816F7777278AEBD9
:100D400093E00E946401D7016D917C91CB01807882
:100D5000892B51F0660F672F661F770B6F77772708
:100D60008AEB93E00E946401F801E75BFD4F60812C
:100D70007181CB018827907C892B39F2770F660B24
:100D8000770F762F661F6F7777278AEB93E00E94A5
:100D90006401BBCF60EF70E08AEB93E00E946401D6
:100DA0006AE670E08AEB93E00E94640102EF1FEFB5
:100DB000063010F4B80102C06FE770E08AEB93E0F0
:100DC0000E9464010F5F1F4F0630110589F79DCF08
:100DD000FA018381C28080FBC7F8D12CE12CF12C71
:100DE000FC2CEE24DD24CC249581848190FB87F9B2
:100DF00090E0A0E0B0E0DC0199278827C80ED91E5A
:100E0000EA1EFB1E9185808590FB87F9C80ED11CD8
:100E1000E11CF11C9781868190FB87F990E0A0E0AE
:100E2000B0E0BA2FA92F982F8827C80ED91EEA1E26
:100E3000FB1E818161E08130C1F480810E948811B4
:100E400060E0D8018C910E94C11182E090E00E9484
:100E50009E1061E0F80180810E94C111C6010E94CC
:100E60009E1060E0D8018C9113C0FA0180810E942D
:100E7000C11182E090E00E949E1060E0D8018C9148
:100E80000E94C111C6010E949E1061E0F80180819C
:100E90000E94C111D8011B968C911B971A962C9118
:100EA00080FB27F9822F90E0A0E0B0E0582F442784
:100EB00033272227F8019585848590FB87F990E0F8
:100EC000A0E0B0E0DC0199278827280F391F4A1FCE
:100ED0005B1F9189808990FB87F9280F311D411D87
:100EE000511D9785868590FB87F990E0A0E0B0E0E2
:100EF000BA2FA92F982F8827280F391F4A1F5B1F49
:100F000060E0808129873E834F8358870E94881143
:100F100029853E814F815885D80111966C91119792
:100F20008C910E94F711F801208129839A838B8389
:100F30007C836D839E012F5F3F4F45E065E786E729
:100F400093E00E943C0E29960FB6F894DEBF0FBEC8
:100F5000CDBFDF91CF911F910F91FF90EF90DF9068
:100F6000CF90BF90AF909F9008951F920F920FB6B1
:100F70000F9211242F933F934F935F936F937F931F
:100F80008F939F93AF93BF93EF93FF9380919102C1
:100F900087FF05C010928500109284001AC020912E
:100FA0009102332727FD30958091900290E0281719
:100FB00039077CF480919102992787FD9095FC0177
:100FC000EE0FFF1FE80FF91FEE56FD4F808186FDE3
:100FD00015C0809191028F5F8093910220919102C0
:100FE000332727FD30958091900290E0281739072C
:100FF000BCF4809191028C305CF112C0809191021E
:10100000992787FD9095FC01EE0FFF1FE80FF91F50
:10101000EE56FD4F808160E08F730E94C111D9CFE1
:101020008091840090918500049680349C4918F446
:1010300080E49CE905C0809184009091850004962D
:1010400090938900809388008FEF8093910238C03D
:10105000209184003091850080919102992787FD2D
:101060009095FC01EE0FFF1FE80FF91FEE56FD4FA4
:1010700081819281820F931F9093890080938800D1
:1010800080919102992787FD9095FC01EE0FFF1F3B
:10109000E80FF91FEE56FD4F808186FF11C0809149
:1010A0009102992787FD9095FC01EE0FFF1FE80F35
:1010B000F91FEE56FD4F808161E08F730E94C111D0
:1010C000FF91EF91BF91AF919F918F917F916F9120
:1010D0005F914F913F912F910F900FBE0F901F90F6
:1010E0001895209190022C30A0F431E0320F30930B
:1010F0009002FC012083822F90E0FC01EE0FFF1F85
:10110000E80FF91FEE56FD4F88EB9BE09283818339
:1011100008952FEFFC0120830895DF92EF92FF9254
:101120000F931F93CF93DF93EC01D62E7A018901A1
:1011300088818C3008F066C061E08D2D0E94881196
:101140008881A82FB0E0FD01EE0FFF1FEA0FFB1F03
:10115000EE56FD4F2D2D2F739081907C922B908316
:1011600060E272E06E197F0977FF02C06D5F7F4F0A
:101170007595679575956795698340E659E0401BBD
:10118000510B57FF02C04D5F5F4F559547955595E1
:1011900047954A836CE00E94F6149CE0899FB00159
:1011A000112420E030E0A901460F571FFA01EE0F8D
:1011B000FF1FE40FF51FEE56FD4F908196FD16C000
:1011C0002F5F3F4F2C30310571F781110FC0109206
:1011D000800082E08093810010928500109284004C
:1011E000B19A80916F00826080936F00888190E057
:1011F000FC01EE0FFF1FE80FF91FEE56FD4F808137
:10120000806480838881DF91CF911F910F91FF903F
:10121000EF90DF90089520E639E040E252E00C9430
:101220008D08FC01808190E0FC01EE0FFF1FE80FAC
:10123000F91FEE56FD4F80818F7B80830895FC015E
:1012400080818C3070F5918128E830E0291B3109CC
:1012500097FD3395220F331F220F331F6217730739
:101260007CF0928128E532E0291B310997FD339506
:10127000220F331F220F331F621773070CF49B01D9
:1012800022503109220F331F4FB7F89490E0FC0130
:10129000EE0FFF1FE80FF91FEE56FD4F328321833B
:1012A0004FBF08954F925F926F927F92AF92BF921D
:1012B000CF92DF92EF92FF920F931F93CF93DF9322
:1012C000EC01603282E078070CF040C077FD06C088
:1012D000653B71052CF064EB70E002C060E070E0EB
:1012E000898128E830E0281B310987FD3395220FDA
:1012F000331F220F331F5901CC24B7FCC094DC2CC0
:10130000882777FD8095982F2A8148E552E0421B77
:10131000510927FD5395440F551F440F551F2A01AE
:10132000662457FC6094762C7F926F925F924F9266
:1013300014EBE12EF12C00E010E020E030E0A901F8
:101340000E949E140F900F900F900F90CE01DF918E
:10135000CF911F910F91FF90EF90DF90CF90BF90B2
:10136000AF907F906F905F904F900C941F09FC019D
:10137000808190E0FC01EE0FFF1FE80FF91FEE5691
:10138000FD4F808186FB882780F908958091E602D1
:1013900090E02091E702821B910908952091E702D5
:1013A0008091E602281750F4E22FF0E0E851FD4F5B
:1013B000808190E02F5F2093E70208958FEF9FEFE9
:1013C0000895E091E7028091E602E81730F4F0E03A
:1013D000E851FD4F808190E008958FEF9FEF0895D1
:1013E0000895CF92DF92EF92FF920F931F93CF93C6
:1013F000DF937C01CB018A012091C202222389F074
:10140000EB016B01C40ED51ECC15DD0569F06991A9
:10141000D701ED91FC910190F081E02DC701099574
:10142000F3CF642F0E94500BC801DF91CF911F9121
:101430000F91FF90EF90DF90CF900895CF93DF93BF
:101440001F92CDB7DEB769832091C2022223D1F06B
:101450002091C302203240F021E030E0FC013383D0
:10146000228380E090E015C08091C402E82FF0E074
:10147000EB53FD4F998190838F5F8093C4028093DB
:10148000C30205C061E0CE0101960E94500B81E0CD
:1014900090E00F90DF91CF910895FC0113821282AA
:1014A00048EE53E060E070E04483558366837783C1
:1014B00081EC91E09183808308951092E70210926D
:1014C000E6021092C4021092C3020C949B0A862F6B
:1014D000413208F040E268EE72E00E94B90A1092D0
:1014E000E7028093E602089521E00C94670A81E008
:1014F0008093C2026093E5021092C4021092C3026C
:1015000008950F93062F21E04091C30265EC72E02D
:101510008091E5020E94FD0A1092C4021092C3025B
:101520001092C2020F91089561E00C94810A86EB3B
:1015300092E00C944D0A1092750381E0809373033E
:101540001092720361E082E10E94C11161E083E1C7
:101550000E94C111E9EBF0E080818E7F8083808161
:101560008D7F808388E48093B80085E48093BC00FD
:101570000895413208F03FC0909175039111FCCF5E
:1015800091E090937503209373032FEF209308034A
:1015900010924D03240F20934C0390937403909169
:1015A0007403880F892B80937403809172038130B8
:1015B00041F410927203809174038093BB0085EC18
:1015C00001C085EE8093BC00809175038130E1F30A
:1015D00080914D03841710F440914D032EE433E0C5
:1015E000FB01D9018A2F821B841718F48D918193F6
:1015F000F9CF842F089580E008950F93413208F0C9
:1016000046C0909175039111FCCF92E090937503C1
:10161000009373039FEF9093080310924D03409340
:101620004C03FB016EE473E0DB019A2F961B9417C9
:1016300018F491919D93F9CF1092740390917403D3
:10164000880F892B8093740380917203813041F459
:1016500010927203809174038093BB0085EC01C0EB
:1016600085EE8093BC00222321F0809175038230A7
:10167000E1F3809108038F3F61F08091080380328D
:1016800051F080910803803341F483E007C081E08A
:1016900005C080E003C082E001C084E00F9108959E
:1016A000613298F420917503243089F460932A0301
:1016B000FC018CE293E0DC012A2F281B261718F48A
:1016C00021912D93F9CF80E0089581E0089582E083
:1016D000089585ED8093BC008091BC0084FDFCCF13
:1016E00010927503089585EC8093BC0010927503E9
:1016F00008951F920F920FB60F9211242F933F93CC
:101700004F935F936F937F938F939F93AF93BF9309
:10171000EF93FF938091B900887F803609F49CC0D5
:1017200068F5883209F45BC090F4803109F454C044
:1017300038F4882309F4F5C0883009F44DC0F5C0A9
:10174000883109F44CC0803209F45DC0EEC08034A9
:1017500009F468C048F4803309F455C0883309F0AF
:10176000E4C080930803A8C0803509F44FC08835D1
:1017700009F45DC0883409F0D8C0D5C0883909F4AF
:10178000C6C0A8F4883709F467C038F4883609F46D
:1017900063C0803709F460C0C8C0883809F4B7C096
:1017A000803909F45FC0803809F0BFC05BC0803B5E
:1017B00009F485C038F4803A09F466C0883A09F41F
:1017C0007EC0B3C0803C09F4A6C0883C09F4A3C025
:1017D000883B09F489C0A9C08091740310C090911E
:1017E0004D0380914C03981770F5E0914D0381E013
:1017F0008E0F80934D03F0E0E25BFC4F808180937D
:10180000BB0085EC85C0809308038DC0E0914D033B
:1018100081E08E0F80934D038091BB00F0E0E25B8E
:10182000FC4F808390914D0380914C036DC0E091FB
:101830004D0381E08E0F80934D038091BB00F0E05B
:10184000E25BFC4F80838091730381116CC081E067
:101850008093720384EA60C083E0809375031092E2
:101860000903CFCF80910903803208F050C0E09186
:10187000090381E08E0F809309038091BB00F0E0A3
:10188000E65FFC4F8083BDCF80910903803230F446
:10189000E0910903F0E0E65FFC4F10820E94690BC3
:1018A0006091090370E0E0916E03F0916F038AE0AC
:1018B00093E00995109209030E94730B36C084E0EF
:1018C0008093750310922B0310922A03E09170030A
:1018D000F0917103099580912A03811105C081E07F
:1018E00080932A0310922C03E0912B0381E08E0F4A
:1018F00080932B03F0E0E45DFC4F80818093BB007C
:1019000090912B0380912A03981708F47ACF85E8E9
:101910008093BC000AC085EC8093BC0010927503D4
:1019200004C0109208030E94690BFF91EF91BF91D0
:10193000AF919F918F917F916F915F914F913F9167
:101940002F910F900FBE0F901F9018950F931F931C
:10195000CF93DF93EC018B0188819981DC01ED91BC
:10196000FC916F770190F081E02D09958881998134
:10197000DC01ED91FC91B801660F672F661F770BB4
:101980006F770190F081E02DDF91CF911F910F9142
:101990000994DC018D919C91DC01ED91FC91019009
:1019A000F081E02D60EF0994DC018D919C91DC01C8
:1019B000ED91FC910190F081E02D67EF0994CF93B8
:1019C000DF93EC0188819981DC01ED91FC9101901C
:1019D000F081E02D69EF099588819981DC01ED9115
:1019E000FC910190F081E02D62E009958881998158
:1019F000DC01ED91FC910190F081E02D63E0DF913D
:101A0000CF9109941F93CF93DF93EC018A818823B0
:101A1000D9F1CE010E94C90C88819981DC01ED9138
:101A2000FC910190F081E02D69E709958881998109
:101A3000DC01ED91FC91AB81BC810190F081E02D46
:101A40006C91099588819981DC01ED91FC91AB81C4
:101A5000BC810190F081E02D11966C91099512E006
:101A60008A81181758F4EB81FC81E10FF11D608128
:101A700070E0CE010E94A60C1F5FF2CFCE01DF9175
:101A8000CF911F910C94D40CDF91CF911F910895A9
:101A9000AF92BF92CF92DF92EF92FF920F931F937C
:101AA000CF93DF93EC018B01A42EB22E6DEC71E08D
:101AB000C8010E94A4166C016FE270E0C8010E9488
:101AC000991601967C01C114D10441F0009731F0C0
:101AD000C81AD90AC394C394CA8208C0F8010190F5
:101AE0000020E9F7E01BEF5FEA8378018B819C819E
:101AF0000E94FB150A8110E0C8010E9463159C83B7
:101B00008B83DC01A00FB11F1C92FC01A082B1826B
:101B10004A8150E042505109B7010296DF91CF91BE
:101B20001F910F91FF90EF90DF90CF90BF90AF90FB
:101B30000C948A16DC018D919C91DC01ED91FC9155
:101B40000480F581E02D09941F93CF93DF93EC017E
:101B50008885813741F08937B9F5CE01DF91CF9182
:101B60001F910C94020D8FA998AD892BD1F129A555
:101B70003AA5C901019797FDC90195958795182F39
:101B800099270E946315482FFC0121E03E2F341B4A
:101B90003117A0F4DE01A20FB11D18963C913083DD
:101BA00051E0520FDE01A50FB11D18965C9160E85F
:101BB000569F3019112431932E5FE8CFEFA9F8AD6D
:101BC000DF91CF911F910994E9ADFAAD309749F0BB
:101BD000AE01475F5F4F69A56150DF91CF911F91C3
:101BE0000994DF91CF911F9108950F931F93CF9385
:101BF000DF93EC018A0188819981DC01ED91FC91F0
:101C00006F70606E0190F081E02D0995B801CE01F2
:101C1000DF91CF911F910F910C94A60C0F931F93FE
:101C2000CF93DF93EC018A0188819981DC01ED91EA
:101C3000FC916F7060690190F081E02D09958881B9
:101C40009981DC01ED91FC91602F6F770190F0811B
:101C5000E02D099588819981DC01ED91FC91B80115
:101C6000660F672F661F770B0190F081E02DDF91E3
:101C7000CF911F910F910994CF92DF92EF92FF9233
:101C80000F931F93CF93DF9300D01F92CDB7DEB792
:101C90008C01F42E2A833B8369830E94C90CD801EE
:101CA0008D919C91DC01ED91FC910190F081E02DF2
:101CB000698109952A81E22EC22E3B81D32E8C2D7B
:101CC0008E198F1540F4F60161916F0170E0C80123
:101CD0000E94A60CF4CFC8010F900F900F90DF91D7
:101CE000CF911F910F91FF90EF90DF90CF900C94C8
:101CF000D40C9A01FA0101900020E9F73197E41B16
:101D0000F50B4E2F0C943C0EAB0161E70C94790E51
:101D1000FC01603DA1F028F4603959F0603C61F0AD
:101D20000895603E19F0643F69F0089554A743A7F1
:101D3000089556A745A7089550AB47A7089552ABFD
:101D400041AB089554AB43AB08956F3F19F4FC01C8
:101D500056AB45AB0895FC0152AF41AF0895FC016D
:101D600015821682178280E090E0DF01A80FB91F6C
:101D700018961C92019680329105B9F710A612A60A
:101D800011A605A8F6A9E02D309709F00994089549
:101D9000FC011282148213820C94AF0ECF93DF9356
:101DA000EC0188819981DC01ED91FC910680F7813D
:101DB000E02D099528A52223A1F0873F910531F454
:101DC00018A6CE01DF91CF910C94A40D29A53AA5B8
:101DD000FE01E20FF31F80872F5F3F4F3AA729A72D
:101DE00089C02D81222309F44CC0803891050CF064
:101DF00048C09FEF920F9D83FE01E90FF11D808780
:101E0000911178C08E81882309F474C0803D79F1E6
:101E100038F48039B9F0803C91F5EFA5F8A929C0D4
:101E2000803E19F0843FD9F02AC0EBA5FCA530977D
:101E300031F18885698570E0B0E88B9F600D711D78
:101E400011241BC0EDA5FEA53097C9F088856985D2
:101E500070E090E8899F600D711D11240EC0EBA900
:101E6000FCA9309761F0688570E0898507C0E9A911
:101E7000FAA9309721F0688570E08F8109951E825C
:101E800039C0803F91052CF4282F2F702F83807F3D
:101E90009927803E910511F154F4803C910501F1A0
:101EA000803D9105E9F08039910521F517C0843F07
:101EB0009105A1F044F4803F9105E1F481E088A709
:101EC0001AA619A617C0893F910571F08F3F910599
:101ED00089F4CE01DF91CF910C94AF0E92E001C056
:101EE00091E09D838E8306C086E793E0DF91CF91DA
:101EF0000C94DF0CDF91CF9108958F929F92AF9257
:101F0000BF92CF92DF92EF92FF921F93CF93DF9316
:101F1000EB014A01690161E08DE00E94881110E047
:101F2000EE24D7FCE094FE2CAA2497FCA094BA2CB3
:101F3000812F90E08C179D0794F4C701B6010E9491
:101F4000761061E08DE00E94C111C501B4010E94CC
:101F5000761060E08DE00E94C1111F5FE9CFDF9134
:101F6000CF911F91FF90EF90DF90CF90BF90AF90F7
:101F70009F908F900895CF93DF93EC0161E08DE007
:101F80000E94881122ED30E048E250E062E070E00B
:101F9000CE010E947D0F6AEF70E080E090E00E9429
:101FA000761022ED30E048E250E063E070E0CE01D0
:101FB0000E947D0F6DE770E080E090E0DF91CF91AF
:101FC0000C947610CF93DF93EC0126E08AEB93E03C
:101FD0000E945F138AEB93E099838883CE010E946D
:101FE000BB0FCE010E94DF0CCE01DF91CF910C948C
:101FF000020D86E793E00C94C80E1F920F920FB665
:102000000F9211242F933F938F939F93AF93BF937E
:102010008091B2039091B303A091B403B091B50342
:102020003091B10323E0230F2D3720F40196A11D39
:10203000B11D05C026E8230F0296A11DB11D2093F6
:10204000B1038093B2039093B303A093B403B0930E
:10205000B5038091B6039091B703A091B803B091F6
:10206000B9030196A11DB11D8093B6039093B703E8
:10207000A093B803B093B903BF91AF919F918F9193
:102080003F912F910F900FBE0F901F9018952FB773
:10209000F8946091B2037091B3038091B40390916E
:1020A000B5032FBF08953FB7F8948091B603909180
:1020B000B703A091B803B091B90326B5A89B05C09A
:1020C0002F3F19F00196A11DB11D3FBF6627782F44
:1020D000892F9A2F620F711D811D911D42E0660F9D
:1020E000771F881F991F4A95D1F70895CF92DF92E5
:1020F000EF92FF92CF93DF936B017C010E9453100C
:10210000EB01C114D104E104F10489F00E94E5144B
:102110000E9453106C1B7D0B683E734090F381E06E
:10212000C81AD108E108F108C851DC4FEACFDF91A5
:10213000CF91FF90EF90DF90CF900895019739F005
:10214000880F991F880F991F02970197F1F708953B
:10215000789484B5826084BD84B5816084BD85B582
:10216000826085BD85B5816085BDEEE6F0E0808149
:1021700081608083E1E8F0E010828081826080836A
:10218000808181608083E0E8F0E0808181608083ED
:10219000E1EBF0E0808184608083E0EBF0E080811F
:1021A00081608083EAE7F0E08081846080838081C1
:1021B0008260808380818160808380818068808369
:1021C0001092C10008958E3008F08E5087702091D3
:1021D0000D0190E4299F90011124822B80937C00B3
:1021E00080917A00806480937A0080917A0086FDE5
:1021F000FCCF809178002091790090E0922B089597
:102200001F93CF93DF93182FEB0161E00E94881199
:10221000209711F460E004C0CF3FD10539F461E0AC
:10222000812FDF91CF911F910C94C111E12FF0E02C
:10223000E457FF4FE491E330F9F048F4E130B9F0AE
:10224000E230A1F584B5806284BDC8BD34C0E730FA
:10225000E9F0E83019F1E43049F5809180008062BE
:1022600080938000D0938B00C0938A0024C084B5F3
:10227000806884BDC7BD1FC0809180008068809346
:102280008000D0938900C093880015C08091B00071
:1022900080688093B000C093B3000DC08091B000FF
:1022A00080628093B000C093B40005C0C038D105EF
:1022B0000CF0B5CFAFCFDF91CF911F910895833050
:1022C00081F028F4813099F08230A1F008958730B0
:1022D000A9F08830B9F08430D1F4809180008F7DEE
:1022E00003C0809180008F7780938000089584B52B
:1022F0008F7702C084B58F7D84BD08958091B00032
:102300008F7703C08091B0008F7D8093B0000895D7
:10231000CF93DF9390E0FC01E056FF4F2491FC0146
:10232000EC54FF4F8491882349F190E0880F991F66
:10233000FC01E452FF4FA591B4918E529F4FFC01D6
:10234000C591D4919FB7611108C0F8948C912095E4
:1023500082238C93888182230AC0623051F4F894DE
:102360008C91322F309583238C938881822B8883A4
:1023700004C0F8948C91822B8C939FBFDF91CF91F6
:1023800008950F931F93CF93DF931F92CDB7DEB7BE
:10239000282F30E0F901E457FF4F8491F901E0560E
:1023A000FF4F1491F901EC54FF4F04910023C9F041
:1023B000882321F069830E945F116981E02FF0E09A
:1023C000EE0FFF1FEE52FF4FA591B4919FB7F89407
:1023D0008C91611103C01095812301C0812B8C93D6
:1023E0009FBF0F90DF91CF911F910F910895CF92D2
:1023F000DF92EF92FF920F931F93CF93DF9390E0C2
:10240000FC01E056FF4FD491FC01EC54FF4F749156
:10241000611102C0C0E001C0CD2FDA01C901BF7057
:10242000672F70E0660F771F68537F4F00E010E062
:102430009801FB01E590F490F70140814D234C1386
:102440001EC0680179014FEFC41AD40AE40AF40AE5
:10245000081719072A073B0709F442C097018601AC
:10246000E8CF68017901FFEFCF1ADF0AEF0AFF0A10
:10247000081719072A073B0799F197018601FB0105
:10248000E590F490F70140814D234C13EACF801B77
:10249000910BA20BB30B20E030E0A901FB01E5900A
:1024A000F490F701F080FD22FC120AC028173907CA
:1024B0004A075B07A9F02F5F3F4F4F4F5F4FEECFAB
:1024C000A8E1B0E00E944915605F7F4F8F4F9F4F9A
:1024D00024E096958795779567952A95D1F703C05F
:1024E00060E070E0CB01DF91CF911F910F91FF90E1
:1024F000EF90DF90CF900895FC01818D228D90E0C8
:10250000805C9F4F821B91098F7399270895FC016E
:10251000918D828D981731F0828DE80FF11D858D98
:1025200090E008958FEF9FEF0895FC01918D828DCB
:10253000981761F0828DDF01A80FB11D5D968C9117
:10254000928D9F5F9F73928F90E008958FEF9FEF22
:10255000089589E194E1892B49F080E090E0892B8E
:1025600029F00E94191481110C9400000895FC01B7
:10257000848DDF01A80FB11DA35ABF4F2C91848D0C
:1025800090E001968F739927848FA689B7892C9341
:10259000A089B1898C9180648C93938D848D9813DC
:1025A00006C00288F389E02D80818F7D80830895A5
:1025B000CF93DF93EC01888D8823C9F0EA89FB89EA
:1025C000808185FD05C0A889B9898C9186FD0FC0E1
:1025D0000FB607FCF5CF808185FFF2CFA889B989B6
:1025E0008C9185FFEDCFCE010E94B712E7CFDF912E
:1025F000CF910895CF92DF92FF920F931F93CF93C5
:10260000DF931F92CDB7DEB76C01DC015B969C9126
:102610005B975C968C915C97981307C05096ED91F0
:10262000FC915197808185FD32C0F601038D10E049
:102630000F5F1F4F0F731127F02EF601848DF812D4
:1026400011C00FB607FCF9CFD6015096ED91FC9161
:102650005197808185FFF1CFC60169830E94B7122F
:102660006981EBCF838DE80FF11DE35AFF4F608343
:10267000D6015B960C935B975296ED91FC91539724
:1026800080818062808381E058968C930DC0D60152
:102690005696ED91FC91579760835096ED91FC9181
:1026A000519780818064808381E090E00F90DF917A
:1026B000CF911F910F91FF90DF90CF900895BF921F
:1026C000CF92DF92EF92FF92CF93DF93EC016A01FA
:1026D0007B01B22EE889F98982E08083411581EE81
:1026E000580761057105A1F060E079E08DE390E0A5
:1026F000A70196010E940215215031094109510993
:102700005695479537952795211580E1380798F01C
:10271000E889F989108260E874E88EE190E0A70109
:1027200096010E940215215031094109510956951F
:10273000479537952795EC85FD853083EE85FF8598
:102740002083188EEC89FD89B082EA89FB8980811B
:1027500080618083EA89FB89808188608083EA893F
:10276000FB89808180688083EA89FB8980818F7DF5
:102770008083DF91CF91FF90EF90DF90CF90BF905B
:1027800008951F920F920FB60F9211242F938F93DB
:102790009F93EF93FF93E091CA03F091CB03808165
:1027A000E091D003F091D10382FD12C0908180911D
:1027B000D3038F5F8F732091D403821751F0E09180
:1027C000D303F0E0E654FC4F958F8093D30301C010
:1027D0008081FF91EF919F918F912F910F900FBE6C
:1027E0000F901F9018951F920F920FB60F92112401
:1027F0002F933F934F935F936F937F938F939F9309
:10280000AF93BF93EF93FF938AEB93E00E94B712CD
:10281000FF91EF91BF91AF919F918F917F916F91B8
:102820005F914F913F912F910F900FBE0F901F908E
:1028300018958AEB93E00E947C1221E0892B09F421
:1028400020E0822F08951092BD031092BC0388EE01
:1028500093E0A0E0B0E08093BE039093BF03A09309
:10286000C003B093C10386ED91E09093BB038093C6
:10287000BA0385EC90E09093C7038093C60384EC81
:1028800090E09093C9038093C80380EC90E090930C
:10289000CB038093CA0381EC90E09093CD038093A7
:1028A000CC0382EC90E09093CF038093CE0386EC30
:1028B00090E09093D1038093D0031092D3031092B1
:1028C000D4031092D5031092D603089508950E9460
:1028D000A8100E9466140E942303C9EAD2E10E9454
:1028E000DF032097E1F30E94A912F9CFCF92DF9284
:1028F000EF92FF920F931F93CF93DF936C017A01B6
:10290000EB01E60EF71E00E010E0CE15DF0561F0EA
:102910006991D601ED91FC910190F081E02DC60105
:102920000995080F191FF1CFC801DF91CF911F91B1
:102930000F91FF90EF90DF90CF9008954F925F92AC
:102940006F927F92AF92BF92CF92DF92EF92FF92FF
:102950000F931F93CF93DF93CDB7DEB729013A01D1
:10296000621B730B840B950B29893A894B895C890F
:102970002A193B094C095D09298B3A8B4B8B5C8BDF
:102980009B01AC0169897A898B899C890E94E61434
:10299000E418F50806091709A80197010E942415F3
:1029A0002A0D3B1D4C1D5D1DCA01B901DF91CF9160
:1029B0001F910F91FF90EF90DF90CF90BF90AF905D
:1029C0007F906F905F904F9008950895DB018F93F3
:1029D0009F930E944915BF91AF91A29F800D911DB9
:1029E000A39F900DB29F900D11240895991B79E03B
:1029F00004C0991F961708F0961B881F7A95C9F78F
:102A000080950895A1E21A2EAA1BBB1BFD010DC0E3
:102A1000AA1FBB1FEE1FFF1FA217B307E407F5078E
:102A200020F0A21BB30BE40BF50B661F771F881F6A
:102A3000991F1A9469F760957095809590959B0100
:102A4000AC01BD01CF010895052E97FB1EF4009443
:102A50000E943B1557FD07D00E94021507FC03D0CA
:102A60004EF40C943B1550954095309521953F4F71
:102A70004F4F5F4F089590958095709561957F4F6A
:102A80008F4F9F4F0895EE0FFF1F0590F491E02D9B
:102A900009940E945415A59F900DB49F900DA49F7A
:102AA000800D911D11240895A29FB001B39FC00114
:102AB000A39F700D811D1124911DB29F700D811D6A
:102AC0001124911D0895CF93DF938230910510F466
:102AD00082E090E0E0915904F0915A0420E030E067
:102AE000A0E0B0E0309739F1408151814817590793
:102AF000B8F04817590771F482819381109729F033
:102B000013969C938E9312972CC090935A048093A3
:102B1000590427C02115310531F04217530718F029
:102B2000A901DB0101C0EF019A01BD01DF010280B3
:102B3000F381E02DD7CF21153105F9F0281B390B92
:102B40002430310580F48A819B816115710521F063
:102B5000FB019383828304C090935A0480935904A9
:102B6000FE01329644C0FE01E20FF31F8193919360
:102B700022503109398328833AC02091570430917B
:102B80005804232B41F4209102013091030130932A
:102B90005804209357042091000130910101211520
:102BA000310541F42DB73EB7409104015091050124
:102BB000241B350BE0915704F0915804E217F307FA
:102BC000A0F42E1B3F0B2817390778F0AC014E5F9D
:102BD0005F4F2417350748F04E0F5F1F509358047E
:102BE000409357048193919302C0E0E0F0E0CF015D
:102BF000DF91CF910895CF93DF93009709F487C0B9
:102C0000FC01329713821282C0915904D0915A0468
:102C1000209781F420813181280F391F809157043A
:102C2000909158048217930779F5F0935804E09334
:102C300057046DC0DE0120E030E0AE17BF0750F44E
:102C400012964D915C9113979D014115510509F123
:102C5000DA01F3CFB383A28340815181840F951FA2
:102C60008A179B0771F48D919C911197840F951F82
:102C700002969183808312968D919C9113979383F2
:102C800082832115310529F4F0935A04E093590405
:102C90003EC0D9011396FC93EE9312974D915D912E
:102CA000A40FB51FEA17FB0779F480819181840F87
:102CB000951F0296D90111969C938E9382819381E0
:102CC00013969C938E931297E0E0F0E08A819B81AB
:102CD000009719F0FE01EC01F9CFCE010296288190
:102CE0003981820F931F209157043091580428177F
:102CF000390769F4309729F410925A041092590454
:102D000002C013821282D0935804C0935704DF91FB
:102D1000CF910895FB01DC014150504048F00190F3
:102D20000D920020C9F701C01D9241505040E0F7BC
:102D30000895FC0181E090E00190061609F4CF01AE
:102D40000020D1F701970895FB0151915523A9F077
:102D5000BF01DC014D9145174111E1F759F4CD0157
:102D60000190002049F04D9140154111C9F3FB013C
:102D70004111EFCF81E090E001970895F894FFCFE3
:102D800000005B04800001000000FF130001556E8D
:102D90006B6E6F776E2070696E206D6F6465007367
:102DA0006B657463685F6D61793135612E696E6F33
:102DB000004932432052656164204572726F723A55
:102DC00020546F6F206D616E792062797465732075
:102DD00072656365697665640049324320526561B6
:102DE00064204572726F723A20546F6F2066657767
:102DF0002062797465732072656365697665640025
:102E000031302D6269742061646472657373696E18
:102E100067206D6F6465206973206E6F742079651B
:102E20007420737570706F7274656400746F6F20B6
:102E30006D616E79207175657269657300000000BF
:102E4000001E0AF109C609CE09E109F0092E6370D6
:102E5000700000000000FA1276147C12951287129E
:022E6000D81286
:00000001FF
