:100000003BC100006AC1000068C1000066C1000079
:1000100064C1000062C1000060C100005EC1000058
:100020005CC100005AC1000058C1000056C1000068
:1000300054C1000052C1000050C100004EC1000078
:100040004CC100000C94040C48C1000046C10000E3
:1000500044C1000042C1000040C100000C944C1497
:100060003CC100000C941A190C94501936C10000C0
:1000700034C1000032C1000030C100002EC10000B8
:100080000C94310C2AC1000028C1000026C10000D8
:1000900024C1000022C1000020C100000C94E50F23
:1000A0001CC100001AC100000C945E0C16C10000B7
:1000B00014C1000012C1000010C100000C948B0C90
:1000C0000CC100000AC1000008C1000006C1000008
:1000D00004C1000002C1000000C10000FEC0000019
:1000E000FCC00000590A310B9D09310B010A310B8C
:1000F0007D092709310B310B310B310B770A4A0887
:10010000310B1209310B62099E15A315A815B21502
:10011000BC153516C615CE15D615E015EA15F4151D
:1001200003160D163516171621162B1656165916C8
:1001300048164C16521690165D16611667166B1609
:100140006F16751679167D169016831687168B1600
:1001500000000A0B02090C0D0E0807030401000041
:10016000000000000000000000000000000000008F
:10017000000000000000000000000000121110004C
:10018000000000000000000000000000000000006F
:10019000000000000000010210202008081020408C
:1001A000102040800201020108040201010204083B
:1001B00010204080804020100804020180040201C9
:1001C0008040201008040201080402010102040812
:1001D000102040800102040810204080050505051C
:1001E000070508080808020202020A0A08080404AF
:1001F00004040101010101010101030303030303DD
:100200000303040707070C0C0C0C0C0C0C0C02026B
:10021000020206060606060606060B0B0B0B0B0B68
:100220000B0B000020002300260029002C002F00CB
:100230003200000100000301060109010000220054
:10024000250028002B002E003100340002010000A0
:10025000050108010B0100002100240027002A00ED
:100260002D003000330001010000040107010A01E4
:100270002007060F4914821911241FBECFEFD1E2C7
:10028000DEBFCDBF00E00CBF12E0A0E0B2E0E2E3D1
:10029000F8E300E00BBF02C007900D92A23EB10749
:1002A000D9F726E0A2EEB2E001C01D92AE3DB20742
:1002B000E1F712E0C8E7D2E000E006C022970109AA
:1002C000FE010BBF0E94A91AC037D10780E00807C2
:1002D000A9F70E94C6190C94171C92CE893028F4F5
:1002E000E82FF0E0E756FB4F608308951F93CF930C
:1002F000DF93162F893008F070C0982F990F990F4F
:10030000990F985F973408F096E4D82FDD0FDD0F32
:10031000DD0F8D2FC0E041E08917E8F42EEF280FA4
:100320002434B0F4E82FF0E0DF01A65BBB4F2C9142
:10033000223070F4C42BEE0FFF1FEB54FC4F21E072
:1003400030E0542F512311F420E030E0318320833A
:10035000440F8F5FE1CFC0FF05C0612F61708D2F0B
:100360000E94CA16C1FF06C0612F627081E08D0F26
:100370000E94CA16C2FF06C0612F647082E08D0F12
:100380000E94CA16C3FF06C0612F687083E08D0FFC
:100390000E94CA16C4FF06C0612F607184E08D0FF1
:1003A0000E94CA16C5FF06C0612F607285E08D0FDE
:1003B0000E94CA16C6FF06C0612F607486E08D0FCA
:1003C0000E94CA16C7FF09C0612F607887E08D0FB1
:1003D000DF91CF911F910C94CA16DF91CF911F919D
:1003E00008958031C0F44091A2045091A30421E00B
:1003F00030E002C0220F331F8A95E2F7672B29F401
:10040000209530952423352302C0242B352B30939F
:10041000A3042093A20408950F931F93CF93DF9317
:10042000EB01863460F5082F10E0F801E65BFB4F26
:100430009081933091F0943011F582508033C0F464
:10044000980122503109C901880F991F820F931F0B
:100450008E519D4F0E94C90D0BC09EEF980F9C308E
:1004600020F094ED980F933018F4BE010E947B1594
:10047000F801EE0FFF1FEB54FC4FD183C083DF91D7
:10048000CF911F910F910895DC01ED91FC910190A6
:10049000F081E02D19941F93CF93DF93162FC82F6F
:1004A000D0E0FE01EF5BFB4F90811923C057DB4F7B
:1004B000411103C09881911741F0412F50E0682FFE
:1004C00089EF95E00E9476121883DF91CF911F91FA
:1004D0000895CF93DF93809199048823B9F1D09147
:1004E0004104D2FF85C282E00E94FF16892B09F4E5
:1004F0007FC2C4E0D3FF06C083E00E94FF16892BB1
:1005000009F078C2D4FF06C084E00E94FF16892B50
:1005100009F072C2D5FF06C085E00E94FF16892B44
:1005200009F06CC2D6FF06C086E00E94FF16892B38
:1005300009F066C2D7FF06C087E00E94FF16892B2C
:1005400009F060C240E06C2F80E0A5DF80919A0442
:10055000882309F447C0D0914204D0FF55C288E0F7
:100560000E94FF16892B09F44FC2C1E0D1FF06C0DB
:1005700089E00E94FF16892B09F048C2D2FF06C00D
:100580008AE00E94FF16892B09F042C2D3FF06C001
:100590008BE00E94FF16892B09F03CC2D4FF06C0F5
:1005A0008CE00E94FF16892B09F036C2D5FF06C0E9
:1005B0008DE00E94FF16892B09F030C2D6FF06C0DD
:1005C0008EE00E94FF16892B09F02AC2D7FF06C0D1
:1005D0008FE00E94FF16892B09F024C240E06C2FA7
:1005E00081E059DF80919B04882309F447C0D091B2
:1005F0004304D0FF19C280E10E94FF16892B09F441
:1006000013C2C1E0D1FF06C081E10E94FF16892B11
:1006100009F00CC2D2FF06C082E10E94FF16892BAE
:1006200009F006C2D3FF06C083E10E94FF16892BA2
:1006300009F000C2D4FF06C084E10E94FF16892B96
:1006400009F0FAC1D5FF06C085E10E94FF16892B8B
:1006500009F0F4C1D6FF06C086E10E94FF16892B7F
:1006600009F0EEC1D7FF06C087E10E94FF16892B73
:1006700009F0E8C140E06C2F82E00DDF80919C041E
:10068000882309F447C0D0914404D0FFDDC188E13C
:100690000E94FF16892B09F4D7C1C1E0D1FF06C023
:1006A00089E10E94FF16892B09F0D0C1D2FF06C054
:1006B0008AE10E94FF16892B09F0CAC1D3FF06C048
:1006C0008BE10E94FF16892B09F0C4C1D4FF06C03C
:1006D0008CE10E94FF16892B09F0BEC1D5FF06C030
:1006E0008DE10E94FF16892B09F0B8C1D6FF06C024
:1006F0008EE10E94FF16892B09F0B2C1D7FF06C018
:100700008FE10E94FF16892B09F0ACC140E06C2FED
:1007100083E0C1DE80919D04882309F447C0D09115
:100720004504D0FFA1C180E20E94FF16892B09F485
:100730009BC1C1E0D1FF06C081E20E94FF16892B58
:1007400009F094C1D2FF06C082E20E94FF16892BF5
:1007500009F08EC1D3FF06C083E20E94FF16892BE9
:1007600009F088C1D4FF06C084E20E94FF16892BDD
:1007700009F082C1D5FF06C085E20E94FF16892BD1
:1007800009F07CC1D6FF06C086E20E94FF16892BC5
:1007900009F076C1D7FF06C087E20E94FF16892BB9
:1007A00009F070C140E06C2F84E075DE80919E04FA
:1007B000882309F447C0D0914604D0FF65C188E280
:1007C0000E94FF16892B09F45FC1C1E0D1FF06C06A
:1007D00089E20E94FF16892B09F058C1D2FF06C09A
:1007E0008AE20E94FF16892B09F052C1D3FF06C08E
:1007F0008BE20E94FF16892B09F04CC1D4FF06C082
:100800008CE20E94FF16892B09F046C1D5FF06C075
:100810008DE20E94FF16892B09F040C1D6FF06C069
:100820008EE20E94FF16892B09F03AC1D7FF06C05D
:100830008FE20E94FF16892B09F034C140E06C2F33
:1008400085E029DE80919F04882309F447C0D09178
:100850004704D0FF29C180E30E94FF16892B09F4C9
:1008600023C1C1E0D1FF06C081E30E94FF16892B9E
:1008700009F01CC1D2FF06C082E30E94FF16892B3B
:1008800009F016C1D3FF06C083E30E94FF16892B2F
:1008900009F010C1D4FF06C084E30E94FF16892B23
:1008A00009F00AC1D5FF06C085E30E94FF16892B17
:1008B00009F004C1D6FF06C086E30E94FF16892B0B
:1008C00009F0FEC0D7FF06C087E30E94FF16892B00
:1008D00009F0F8C040E06C2F86E0DDDD8091A004D7
:1008E000882309F447C0D0914804D0FFEDC088E3C5
:1008F0000E94FF16892B09F4E7C0C1E0D1FF06C0B2
:1009000089E30E94FF16892B09F0E0C0D2FF06C0E0
:100910008AE30E94FF16892B09F0DAC0D3FF06C0D4
:100920008BE30E94FF16892B09F0D4C0D4FF06C0C8
:100930008CE30E94FF16892B09F0CEC0D5FF06C0BC
:100940008DE30E94FF16892B09F0C8C0D6FF06C0B0
:100950008EE30E94FF16892B09F0C2C0D7FF06C0A4
:100960008FE30E94FF16892B09F0BCC040E06C2F7A
:1009700087E091DD8091A104882309F4C1C0D09162
:100980004904D0FFB1C080E40E94FF16892B09F40E
:10099000ABC0C1E0D1FF06C081E40E94FF16892BE5
:1009A00009F0A4C0D2FF06C082E40E94FF16892B82
:1009B00009F09EC0D3FF06C083E40E94FF16892B76
:1009C00009F098C0D4FF06C084E40E94FF16892B6A
:1009D00009F092C0D5FF06C085E40E94FF16892B5E
:1009E00009F08CC040E06C2F88E0DF91CF9153CDAF
:1009F000C0E080CDC86086CDC0618CCDC06292CD94
:100A0000C06498CDC0689ECDC0E0B0CDC260B6CD08
:100A1000C460BCCDC860C2CDC061C8CDC062CECDFF
:100A2000C064D4CDC068DACDC0E0ECCDC260F2CDF8
:100A3000C460F8CDC860FECDC06104CEC0620ACEED
:100A4000C06410CEC06816CEC0E028CEC2602ECEE4
:100A5000C46034CEC8603ACEC06140CEC06246CEDB
:100A6000C0644CCEC06852CEC0E064CEC2606ACED4
:100A7000C46070CEC86076CEC0617CCEC06282CECB
:100A8000C06488CEC0688ECEC0E0A0CEC260A6CEC4
:100A9000C460ACCEC860B2CEC061B8CEC062BECEBB
:100AA000C064C4CEC068CACEC0E0DCCEC260E2CEB4
:100AB000C460E8CEC860EECEC061F4CEC062FACEAB
:100AC000C06400CFC06806CFC0E018CFC2601ECFA0
:100AD000C46024CFC8602ACFC06130CFC06236CF97
:100AE000C0643CCFC06842CFC0E054CFC2605ACF90
:100AF000C46060CFC86066CFC0616CCFC06272CF87
:100B0000DF91CF910895109274038FEF80930A02C2
:100B100008958F929F92BF92CF92DF92EF92FF92B1
:100B20000F931F93CF93DF931F921F92CDB7DEB722
:100B3000B82E4B01C82ED12C8601065B1B4FF80145
:100B40008081863041F480917403882321F06630DF
:100B5000710509F0D8DF4EEF4B0D4033B0F484E05F
:100B60008816910491F0C60102977C01EE0CFF1CDF
:100B7000E80EF91EF701EE51FD4F7F01CF014A83C8
:100B80000E942D0E4A818111C8C09AEC9B0D9031B4
:100B900070F461E070E0F2E08F16910411F060E013
:100BA00070E0892F4A8399831CDC99814A814434FF
:100BB000D8F4EB2DE695E695E6958B2D8770F0E061
:100BC000EF5BFB4F21E030E0082E01C0220F0A94BA
:100BD000EAF78114910421F48081822B808304C080
:100BE0002095808128232083F601EE0FFF1FEB5410
:100BF000FC4F1182108282E088169104A1F03CF42F
:100C000081149104F9F08A94892851F173C0F4E0B9
:100C10008F16910409F443C084F196E0891691047B
:100C200009F460C067C0903108F07CC0443440F4DF
:100C300060E08B2D0E94911660E08B2D0E94CA16F9
:100C400082E055C0443408F06DC060E08B2D0E94F6
:100C5000911660E08B2D0E94CA16F801108262C0C6
:100C6000443408F05FC060E08B2D0E94CA1661E03A
:100C70008B2D0E94911681E03AC04C3028F084ED13
:100C80008B0D833008F04EC061E08B2D0E949116D1
:100C900060E070E08B2D0E947B1583E028C040331C
:100CA00008F040C084E0F8018083C60102978C01FF
:100CB000000F111F080F191F0E511D4FC801CDD76E
:100CC000811130C0B601C8010F900F90DF91CF9114
:100CD0001F910F91FF90EF90DF90CF90BF909F906A
:100CE0008F9011C78CEE8B0D8230E0F486E0F80116
:100CF000808318C06EE072E089EF95E00F900F904E
:100D0000DF91CF911F910F91FF90EF90DF90CF90E7
:100D1000BF909F908F900C94E712C7014A83F8D63A
:100D20004A8133CF0F900F90DF91CF911F910F9198
:100D3000FF90EF90DF90CF90BF909F908F9008959D
:100D4000CF93C0E08CEE8C0F823020F466E070E030
:100D50008C2FDFDECF5FC634A9F781E08093740368
:100D600089E395E0CF910C94D10ECF93DF938091DE
:100D700074038111C8DEE9E9F4E0C1E4D4E0A0E93C
:100D8000B4E0119219921D9284E0E23AF807C9F793
:100D9000C0E08AEC8C0F803118F462E070E002C091
:100DA00061E070E08C2FB5DECF5FC63491F7109212
:100DB000A3041092A204DF91CF91089523E042E0B2
:100DC0006FE172E089EF95E00E94B2114CE052E0D1
:100DD00060EE89EF95E00E94EA1246E751E060E993
:100DE00089EF95E00E94EA1241EF51E060EC89EF53
:100DF00095E00E94EA124EE651E060ED89EF95E041
:100E00000E94EA1249E855E064EF89EF95E00E94FC
:100E1000EA1249E258E060EF89EF95E00E940D1375
:100E200045EB56E06FEF89EF95E00E94071340E035
:100E300051EE60E070E089EF95E00E94361495CFA6
:100E4000CF93DF93C2EED2E0CE0192D5239683E01A
:100E5000C237D807C9F7DF91CF910895DF92EF929B
:100E6000FF920F931F93CF93DF93F82EEB01D42EB5
:100E70006F3F8FEF780791F06F2D89E395E0A8D74A
:100E80006C2F89E395E04FD789E395E0BDD780913A
:100E90007203909173030E94EA1402C0C0E0D0E094
:100EA0004D2D6F2D89E395E091D70D2D10E089E34D
:100EB00095E0E2D608171907A9F4F0927503C093DC
:100EC0007603E7E7EE2EE3E0FE2EC0E0D0E0C017A9
:100ED000D107BCF489E395E0D7D6F70181937F0170
:100EE0002196F5CF89E395E0C7D6801791071CF4CA
:100EF00061E372E002C069E572E089EF95E00E946B
:100F0000E71242E04D0D25E733E067E789EF95E012
:100F1000DF91CF911F910F91FF90EF90DF900C9494
:100F2000A4128F929F92AF92BF92CF92DF92EF92D4
:100F3000FF920F931F93CF93DF93CBDA89EF95E066
:100F40000E940412892B29F089EF95E00E942F134B
:100F5000F5CF0E9496146093B1037093B20380930F
:100F6000B3039093B403C090AD03D090AE03E09070
:100F7000AF03F090B00340910B0250910C024A0174
:100F8000AA2497FCA094BA2C8B019C010C191D0972
:100F90002E093F0980169106A206B30608F04CC040
:100FA000D501C4018C0D9D1DAE1DBF1D8093AD03E9
:100FB0009093AE03A093AF03B093B003CAE4D4E020
:100FC0001AEC1031C0F488818230A9F42091A20477
:100FD0003091A304012E02C0359527950A94E2F7BB
:100FE00020FF09C0812F0E945615AC01612F89EFA7
:100FF00095E00E945E121F5F2196103111F78091DB
:101000000A0287FD19C0C0E08C2F90E020910A02EF
:10101000332727FD30952817390774F0FC01EE0FB0
:10102000FF1FE80FF91FEB56FC4F618170E0428112
:10103000808114DFCF5FE8CFDF91CF911F910F91B7
:10104000FF90EF90DF90CF90BF90AF909F908F90E8
:1010500008959F92AF92BF92CF92DF92EF92FF924C
:101060000F931F93CF93DF93CDB7DEB729970FB6BA
:10107000F894DEBF0FBECDBF262F8A0190E0FC01A1
:10108000E956F109E231F10508F0EBC2EE58FF4FE5
:101090000C94991ADA0111968C91982F987185FF0A
:1010A00003C060E872E050C0FA018081983069F1B5
:1010B00050F49111D6C2682F89E395E0298788D62C
:1010C00052E0F52E07C0903109F438C0983109F488
:1010D00065C0C7C22985F21680F4F801EF0DF11D35
:1010E00081816081F0E88F9F6019112489E395E088
:1010F000298719D6F394F394EDCF89E395E084D64C
:1011000086E490E00E94EA14ACC2938162812630AA
:1011100061F425814481B0E82B9F40191124E0E857
:101120009E9F6019112470E007C0462FF0E89F9F32
:10113000401911246FEF7FEF91DE93C220910A02D4
:1011400027303CF06CEA72E089EF95E00E94E712EC
:1011500088C22F5F20930A02332727FD3095F901BB
:10116000EE0FFF1FE20FF31FEB56FC4F8083D801F9
:1011700013969C91139712968C91B0E89B9F8019BF
:1011800011248183D80115969C91159714968C9102
:10119000B0E89B9F80191124828363C260910A0288
:1011A000161634F470E0462F552747FD50950FC0B2
:1011B0008FEF80930A0255C2F901EE0FFF1FE20F75
:1011C000F31FEB56FC4F8083811123C07F5F272FD5
:1011D00030E04217530784F770E01BC07830C0F44A
:1011E0009C012F5F3F4FD901AA0FBB1FA20FB31F56
:1011F000AB56BC4F2C91FC01EE0FFF1FE80FF91FFF
:10120000EB56FC4F20838C91818312968C918283C4
:101210007F5F872F90E04817590704F7615060936C
:101220000A021FC2FA0120818181F0E88F9FC0016C
:101230001124820F911D009721F0909373038093E6
:1012400072038091740381110CC27ADD0AC2653089
:1012500008F407C2DA01DC901196CC90119712962F
:10126000BC9012971396AC90139714969C908EEFA7
:101270008D0D803308F0F5C1ED2CF12CB7016250D3
:1012800071098B01000F111F060F171F0E511D4F03
:10129000C801E3D4882311F0C8013AD4B0E89B9E7A
:1012A000900111242A0D311DE0E8BE9EA0011124F9
:1012B0004C0D511DB701C80177D364E070E08D2D4E
:1012C00028DCCFC1623008F4CCC1DA012C91119630
:1012D0008C91B0E88B9FC0011124820F911D9093D7
:1012E0000C0280930B020A970CF0BBC18AE090E0DD
:1012F00090930C0280930B02B4C1623008F4B1C128
:10130000FA01618170E02230A1F08281F0E88F9FC4
:10131000C0011124682B792B233059F0DA01139680
:101320008C9190E090E4899F902D88271124682B60
:10133000792BF801808170D894C160EF70E08DE363
:1013400096E0A2D86CE670E08DE396E09DD81EEFA3
:101350008CEC810F803158F462E070E08DE396E010
:1013600093D86AE070E08DE396E08ED802C01C301E
:1013700020F086ED810F833050F463E070E08DE360
:1013800096E082D868E070E08DE396E07DD8103377
:1013900050F464E070E08DE396E076D86EE070E0A3
:1013A0008DE396E071D88EEE810F823050F466E0C6
:1013B00070E08DE396E068D861E070E08DE396E040
:1013C00063D86FE770E08DE396E05ED81F5F14345A
:1013D00071F1143408F0BCCF60E08DE396E00E9418
:1013E000561861E070E08DE396E04ED861E08DE341
:1013F00096E00E94561861E070E08DE396E044D8D4
:10140000A7CF662309F42DC1DA010C9160EF70E0DB
:101410008DE396E039D86EE670E08DE396E034D83F
:10142000602F8DE396E00E945618063430F067EF87
:1014300070E08DE396E028D814C110E0F801E65B77
:10144000FB4F60818DE396E00E945618000F111F3C
:10145000F801EB54FC4F7F01608171816F77772732
:101460008DE396E011D8D7016D917C91CB01807806
:10147000892B49F0660F672F661F770B6F777727E9
:101480008DE396E001D8F801EB54FC4F6081718147
:10149000CB018827907C892B51F2770F660B770F51
:1014A000762F661F6F7777278DE396E00E944402C0
:1014B000BECF60EF70E08DE396E00E9444026AE6E2
:1014C00070E08DE396E00E9444020AEC1FEF0031C9
:1014D00010F4B80102C06FE770E08DE396E00E945F
:1014E00044020F5F1F4F0031110589F7A0CFFA01A9
:1014F0008381C28080FBC7F8D12CE12CF12CFC2C1D
:10150000EE24DD24CC249581848190FB87F990E042
:10151000A0E0B0E0DC0199278827C80ED91EEA1E9A
:10152000FB1E9185808590FB87F9C80ED11CE11CBC
:10153000F11C9781868190FB87F990E0A0E0B0E0F4
:10154000BA2FA92F982F8827C80ED91EEA1EFB1E76
:10155000818161E08130C1F480810E94911660E058
:10156000D8018C910E94CA1682E090E00E94EA1491
:1015700061E0F80180810E94CA16C6010E94EA1447
:1015800060E0D8018C9113C0FA0180810E94CA16D4
:1015900082E090E00E94EA1460E0D8018C910E9401
:1015A000CA16C6010E94EA1461E0F80180810E9417
:1015B000CA16D8011B968C911B971A962C9180FB0A
:1015C00027F9822F90E0A0E0B0E0582F442733277E
:1015D0002227F8019585848590FB87F990E0A0E0AB
:1015E000B0E0DC0199278827280F391F4A1F5B1FAD
:1015F0009189808990FB87F9280F311D411D511D6C
:101600009785868590FB87F990E0A0E0B0E0BA2F3F
:10161000A92F982F8827280F391F4A1F5B1F60E0CA
:10162000808129873E834F8358870E9491162985A0
:101630003E814F815885D80111966C9111978C91FC
:101640000E942717F801208129839A838B837C834A
:101650006D839E012F5F3F4F45E065E789EF95E081
:1016600073D729960FB6F894DEBF0FBECDBFDF91BA
:10167000CF911F910F91FF90EF90DF90CF90BF908F
:10168000AF909F900895CF92DF92EF92FF920F93C9
:101690001F93CF93DF936C018B017A01EC01CB5543
:1016A000DB4F888187FF04C0FB011182108223C0B9
:1016B0002CE02C9DC0012D9D900D11242881AC01A2
:1016C000420F511D27FD5A952091A40430E0421786
:1016D00053078CF42881AC01420F511D27FD5A9508
:1016E0009A01FA01EE0FFF1FE20FF31FE755FB4FC0
:1016F000208126FD19C088818F5F88838CE08C9DB6
:1017000090018D9D300D11248881A901480F511D34
:1017100087FD5A958091A40490E048175907B4F4C6
:1017200088818C303CF112C02881820F911D27FDE9
:101730009A95FC01EE0FFF1FE80FF91FE755FB4FCD
:10174000808160E08F730E94CA16D5CFF801808136
:101750009181049680349C4918F480E49CE904C08B
:10176000F801808191810496F701918380838FEF46
:10177000888341C0F801808191814881B901640F5B
:10178000711D47FD7A95AB01FB01EE0FFF1FE40FC2
:10179000F51FE755FB4F41815281840F951FF701DB
:1017A000918380838881A901480F511D87FD5A9537
:1017B000FA01EE0FFF1FE40FF51FE755FB4F808185
:1017C00086FF19C08881280F311D87FD3A95F901E0
:1017D000EE0FFF1FE20FF31FE755FB4F808161E023
:1017E0008F73DF91CF911F910F91FF90EF90DF905A
:1017F000CF900C94CA16DF91CF911F910F91FF905B
:10180000EF90DF90CF9008951F920F920FB60F9236
:1018100011240BB60F922F933F934F935F936F93C7
:101820007F938F939F93AF93BF93EF93FF9348E87A
:1018300050E064E870E081E090E025DFFF91EF91F7
:10184000BF91AF919F918F917F916F915F914F91D8
:101850003F912F910F900BBE0F900FBE0F901F90D6
:1018600018951F920F920FB60F9211240BB60F927C
:101870002F933F934F935F936F937F938F939F9398
:10188000AF93BF93EF93FF9348E950E064E970E0B2
:1018900082E090E0F8DEFF91EF91BF91AF919F91D0
:1018A0008F917F916F915F914F913F912F910F9009
:1018B0000BBE0F900FBE0F901F9018951F920F92A6
:1018C0000FB60F9211240BB60F922F933F934F93A5
:1018D0005F936F937F938F939F93AF93BF93EF9398
:1018E000FF9348EA50E064EA70E083E090E0CBDEEA
:1018F000FF91EF91BF91AF919F918F917F916F91E8
:101900005F914F913F912F910F900BBE0F900FBEA3
:101910000F901F9018951F920F920FB60F921124DF
:101920000BB60F922F933F934F935F936F937F93D9
:101930008F939F93AF93BF93EF93FF9348E251E050
:1019400064E271E080E090E09EDEFF91EF91BF9154
:10195000AF919F918F917F916F915F914F913F9147
:101960002F910F900BBE0F900FBE0F901F901895E8
:101970002091A4042033A0F431E0320F3093A4046A
:10198000FC012083822F90E0FC01EE0FFF1FE80F87
:10199000F91FE755FB4F88EB9BE092838183089505
:1019A0002FEFFC0120830895DF92EF92FF920F93B7
:1019B0001F93CF93DF93EC01D62E7A0189018881A2
:1019C000803308F068C061E08D2D0E9491168881F7
:1019D000A82FB0E0FD01EE0FFF1FEA0FFB1FE75538
:1019E000FB4F2D2D2F739081907C922B908360E282
:1019F00072E06E197F0977FF02C06D5F7F4F7595AA
:101A0000679575956795698340E659E0401B510BD2
:101A100057FF02C04D5F5F4F5595479555954795C8
:101A20004A836CE00E944F1A9CE0899FB001112408
:101A300020E030E0A901460F571FFA01EE0FFF1F0B
:101A4000E40FF51FE755FB4F908196FD18C02F5FFF
:101A50003F4F2C30310571F790E08130910521F531
:101A60001092800082E08093810010928500109295
:101A70008400B19A80916F00826080936F008881AA
:101A800090E0FC01EE0FFF1FE80FF91FE755FB4F39
:101A90008081806480838881DF91CF911F910F9135
:101AA000FF90EF90DF9008958230910569F41092D5
:101AB000900082E080939100109295001092940023
:101AC00088BB80937100DBCF8330910569F410925D
:101AD000A00082E08093A1001092A5001092A400C3
:101AE00089BB80937200CBCF892B49F610922001DD
:101AF00082E08093210110922501109224018ABB7B
:101B000080937300BCCF20E639E040E252E04CCF36
:101B1000FC01808190E0FC01EE0FFF1FE80FF91F30
:101B2000E755FB4F80818F7B80830895FC01808186
:101B3000803370F5918128E830E0291B310997FD49
:101B40003395220F331F220F331F621773077CF068
:101B5000928128E532E0291B310997FD3395220F48
:101B6000331F220F331F621773070CF49B0122509F
:101B70003109220F331F4FB7F89490E0FC01EE0FAC
:101B8000FF1FE80FF91FE755FB4F328321834FBF3B
:101B900008954F925F926F927F92AF92BF92CF92D1
:101BA000DF92EF92FF920F931F93CF93DF93EC019D
:101BB000603282E078070CF040C077FD06C0653BDC
:101BC00071052CF064EB70E002C060E070E0898188
:101BD00028E830E0281B310987FD3395220F331F99
:101BE000220F331F5901CC24B7FCC094DC2C88276A
:101BF00077FD8095982F2A8148E552E0421B5109D4
:101C000027FD5395440F551F440F551F2A01662485
:101C100057FC6094762C7F926F925F924F9214EBF8
:101C2000E12EF12C00E010E020E030E0A9010E945C
:101C3000FA190F900F900F900F90CE01DF91CF9176
:101C40001F910F91FF90EF90DF90CF90BF90AF90DA
:101C50007F906F905F904F9069CFFC01808190E002
:101C6000FC01EE0FFF1FE80FF91FE755FB4F8081C6
:101C700086FB882780F908958091690590E020917E
:101C80006A05821B9109089520916A058091690572
:101C9000281750F4E22FF0E0E559FA4F808190E0E8
:101CA0002F5F20936A0508958FEF9FEF0895E091CD
:101CB0006A0580916905E81730F4F0E0E559FA4FBC
:101CC000808190E008958FEF9FEF08950895CF925F
:101CD000DF92EF92FF920F931F93CF93DF937C01DC
:101CE000CB018A0120914505222389F0EB016B018C
:101CF000C40ED51ECC15DD0561F06991D701ED91BB
:101D0000FC910190F081E02DC7011995F3CF642F6C
:101D100033D1C801DF91CF911F910F91FF90EF90C8
:101D2000DF90CF900895CF93DF931F92CDB7DEB7AA
:101D30006983209145052223D1F020914605203268
:101D400040F021E030E0FC013383228380E090E02A
:101D500014C080914705E82FF0E0E85BFA4F9981C5
:101D600090838F5F809347058093460504C061E0B0
:101D7000CE01019601D181E090E00F90DF91CF91EB
:101D80000895FC011382128248EE53E060E070E097
:101D9000448355836683778381EC92E091838083CB
:101DA000089510926A0510926905109247051092E5
:101DB00046052FC0862F413208F040E26BE675E001
:101DC00044D010926A0580936905089521E0F2CF0E
:101DD00081E0809345056093680510924705109255
:101DE000460508950F93062F21E04091460568E4CB
:101DF00075E0809168056DD01092470510924605F8
:101E0000109245050F91089561E0ECCF89E395E0CC
:101E1000B8CF1092F80581E08093F6051092F50591
:101E200061E084E1B7D761E085E1B4D7E9EBF0E0A8
:101E300080818E7F808380818D7F808388E4809302
:101E4000B80085E48093BC000895413208F03FC09B
:101E50009091F8059111FCCF91E09093F8052093B3
:101E6000F6052FEF20938B051092D005240F2093B9
:101E7000CF059093F7059091F705880F892B8093F4
:101E8000F7058091F505813041F41092F5058091B8
:101E9000F7058093BB0085EC01C085EE8093BC0004
:101EA0008091F8058130E1F38091D005841710F41A
:101EB0004091D00521ED35E0FB01D9018A2F821B2D
:101EC000841718F48D918193F9CF842F089580E0C1
:101ED00008950F93413208F046C09091F805911192
:101EE000FCCF92E09093F8050093F6059FEF909356
:101EF0008B051092D0054093CF05FB0161ED75E095
:101F0000DB019A2F961B941718F491919D93F9CFAA
:101F10001092F7059091F705880F892B8093F705AC
:101F20008091F505813041F41092F5058091F70517
:101F30008093BB0085EC01C085EE8093BC0022231A
:101F400021F08091F8058230E1F380918B058F3F7D
:101F500061F080918B05803251F080918B05803348
:101F600041F483E007C081E005C080E003C082E067
:101F700001C084E00F910895613298F42091F80532
:101F8000243089F46093AD05FC018FEA95E0DC0113
:101F90002A2F281B261718F421912D93F9CF80E0C2
:101FA000089581E0089582E0089585ED8093BC0056
:101FB0008091BC0084FDFCCF1092F805089585EC5B
:101FC0008093BC001092F80508951F920F920FB6EF
:101FD0000F9211240BB60F922F933F934F935F9361
:101FE0006F937F938F939F93AF93BF93EF93FF93E1
:101FF0008091B900887F803609F49CC068F58832EA
:1020000009F45BC090F4803109F454C038F488239B
:1020100009F4F3C0883009F44DC0F2C0883109F4E6
:102020004CC0803209F45DC0EBC0803409F468C054
:1020300048F4803309F455C0883309F0E1C0809337
:102040008B05A7C0803509F44FC0883509F45DC001
:10205000883409F0D5C0D3C0883909F4C4C0A8F4C5
:10206000883709F467C038F4883609F463C08037CC
:1020700009F460C0C5C0883809F4B5C0803909F4D6
:102080005FC0803809F0BCC05BC0803B09F483C0EE
:1020900038F4803A09F466C0883A09F47CC0B0C0CC
:1020A000803C09F4A4C0883C09F4A1C0883B09F431
:1020B00087C0A6C08091F70510C09091D00580918F
:1020C000CF05981770F5E091D00581E08E0F8093D1
:1020D000D005F0E0EF52FA4F80818093BB0085EC91
:1020E00083C080938B058BC0E091D00581E08E0F7B
:1020F0008093D0058091BB00F0E0EF52FA4F8083CF
:102100009091D0058091CF056BC0E091D00581E022
:102110008E0F8093D0058091BB00F0E0EF52FA4F14
:1021200080838091F60581116AC081E08093F50576
:1021300084EA5EC083E08093F80510928C05CFCFCF
:1021400080918C05803208F04EC0E0918C0581E0D2
:102150008E0F80938C058091BB00F0E0E357FA4F1F
:102160008083BDCF80918C05803230F4E0918C0566
:10217000F0E0E357FA4F108218DF60918C0570E0B1
:10218000E091F105F091F2058DE895E01995109236
:102190008C0515DF35C084E08093F8051092AE05FC
:1021A0001092AD05E091F305F091F4051995809139
:1021B000AD05811105C081E08093AD051092AF059A
:1021C000E091AE0581E08E0F8093AE05F0E0E15521
:1021D000FA4F80818093BB009091AE058091AD0550
:1021E000981708F47CCF85E88093BC0009C085EC83
:1021F0008093BC001092F80503C010928B05D5DEC9
:10220000FF91EF91BF91AF919F918F917F916F91CE
:102210005F914F913F912F910F900BBE0F900FBE8A
:102220000F901F9018950F931F93CF93DF93EC019E
:102230008B0188819981DC01ED91FC916F77019090
:10224000F081E02D199588819981DC01ED91FC9157
:10225000B801660F672F661F770B6F770190F081CB
:10226000E02DDF91CF911F910F911994DC018D9199
:102270009C91DC01ED91FC910190F081E02D60EFEB
:102280001994DC018D919C91DC01ED91FC91019000
:10229000F081E02D67EF1994CF93DF93EC018881F3
:1022A0009981DC01ED91FC910190F081E02D69EFC5
:1022B000199588819981DC01ED91FC910190F08163
:1022C000E02D62E0199588819981DC01ED91FC9106
:1022D0000190F081E02D63E0DF91CF9119941F937D
:1022E000CF93DF93EC018A818823C1F1CE01BEDF59
:1022F00088819981DC01ED91FC910190F081E02DC4
:1023000069E7199588819981DC01ED91FC91AB8198
:10231000BC810190F081E02D6C91199588819981A3
:10232000DC01ED91FC91AB81BC810190F081E02D4D
:1023300011966C91199512E08A81181750F4EB816F
:10234000FC81E10FF11D608170E0CE016CDF1F5F49
:10235000F3CFCE01DF91CF911F9193CFDF91CF913A
:102360001F910895AF92BF92CF92DF92EF92FF92AA
:102370000F931F93CF93DF93EC018B01A42EB22E0A
:102380006DEC72E0C8010E94FD1B6C016FE270E011
:10239000C8010E94F21B01967C01C114D10441F0D6
:1023A000009731F0C81AD90AC394C394CA8208C0EE
:1023B000F80101900020E9F7E01BEF5FEA83780164
:1023C0008B819C810E94541B0A8110E0C8010E94ED
:1023D000BC1A9C838B83DC01A00FB11F1C92FC01F3
:1023E000A082B1824A8150E042505109B701029661
:1023F000DF91CF911F910F91FF90EF90DF90CF90E1
:10240000BF90AF900C94E31BDC018D919C91DC019B
:10241000ED91FC910480F581E02D19941F93CF93E9
:10242000DF93EC018885813739F08937B1F5CE012A
:10243000DF91CF911F9153CF8FA998AD892BD1F107
:1024400029A53AA5C901019797FDC90195958795D9
:10245000182F99270E94BC1A482FFC0121E03E2F1B
:10246000341B3117A0F4DE01A20FB11D18963C9168
:10247000308351E0520FDE01A50FB11D18965C911B
:1024800060E8569F3019112431932E5FE8CFEFA9F1
:10249000F8ADDF91CF911F911994E9ADFAAD309766
:1024A00049F0AE01475F5F4F69A56150DF91CF9161
:1024B0001F911994DF91CF911F9108950F931F934E
:1024C000CF93DF93EC018A0188819981DC01ED9142
:1024D000FC916F70606E0190F081E02D1995B8014C
:1024E000CE01DF91CF911F910F919DCE0F931F933E
:1024F000CF93DF93EC018A0188819981DC01ED9112
:10250000FC916F7060690190F081E02D19958881D0
:102510009981DC01ED91FC91602F6F770190F08142
:10252000E02D199588819981DC01ED91FC91B8012C
:10253000660F672F661F770B0190F081E02DDF910A
:10254000CF911F910F911994CF92DF92EF92FF924A
:102550000F931F93CF93DF9300D0CDB7DEB78C01DD
:10256000F42E2A833B83698381DED8018D919C916F
:10257000DC01ED91FC910190F081E02D69811995CC
:102580002A81E22EC22E3B81D32E8C2D8E198F15DF
:1025900038F4F60161916F0170E0C80144DEF5CFB7
:1025A000C8010F900F900F90DF91CF911F910F9165
:1025B000FF90EF90DF90CF9064CE9A01FA010190E6
:1025C0000020E9F73197E41BF50B4E2FBDCFAB018F
:1025D00061E7F3CFFC01603DA1F028F4603959F0C8
:1025E000603C61F00895603E19F0643F69F0089521
:1025F00054A743A7089556A745A7089550AB47A7EA
:10260000089552AB41AB089554AB43AB08956F3F6F
:1026100019F4FC0156AB45AB0895FC0152AF41AF34
:102620000895FC0115821682178280E090E0DF0198
:10263000A80FB91F18961C92019680329105B9F720
:1026400010A612A611A605A8F6A9E02D309709F04C
:1026500019940895FC01128214821382E2CFCF9361
:10266000DF93EC0188819981DC01ED91FC9106807A
:10267000F781E02D199528A5222399F0873F910530
:1026800029F418A6CE01DF91CF91C8CE29A53AA58D
:10269000FE01E20FF31F80872F5F3F4F3AA729A764
:1026A00087C02D81222309F44CC0803891050CF09D
:1026B00048C09FEF920F9D83FE01E90FF11D8087B7
:1026C000911176C08E81882309F472C0803D79F122
:1026D00038F48039B9F0803C91F5EFA5F8A929C00C
:1026E000803E19F0843FD9F02AC0EBA5FCA53097B5
:1026F00031F18885698570E0B0E88B9F600D711DB0
:1027000011241BC0EDA5FEA53097C9F08885698509
:1027100070E090E8899F600D711D11240EC0EBA937
:10272000FCA9309761F0688570E0898507C0E9A948
:10273000FAA9309721F0688570E08F8119951E8283
:1027400037C0803F91052CF4282F2F702F83807F76
:102750009927803E910509F154F4803C9105F9F0E8
:10276000803D9105E1F08039910511F516C0843F57
:10277000910599F044F4803F9105D1F481E088A758
:102780001AA619A615C0893F910569F08F3F9105DA
:1027900079F4CE01DF91CF9144CF92E001C091E076
:1027A0009D838E8305C089EF95E0DF91CF9174CD35
:1027B000DF91CF9108958F929F92AF92BF92CF9267
:1027C000DF92EF92FF921F93CF93DF93EB014A01C9
:1027D000690161E08DE0A5D210E0EE24D7FCE09421
:1027E000FE2CAA2497FCA094BA2C812F90E08C1781
:1027F0009D0774F4C701B601C8D061E08DE0CAD26C
:10280000C501B401C2D060E08DE0C4D21F5FEDCF3E
:10281000DF91CF911F91FF90EF90DF90CF90BF900D
:10282000AF909F908F900895CF93DF93EC0161E07C
:102830008DE077D222ED30E048E250E062E070E0D7
:10284000CE01B9DF6AEF70E080E090E09ED022ED2B
:1028500030E048E250E063E070E0CE01ACDF6DE7CD
:1028600070E080E090E0DF91CF918FC0CF93DF9355
:10287000EC0126E08DE396E07DD48DE396E099832C
:102880008883CE01D1DFCE0107DDCE01DF91CF916C
:1028900026CD89EF95E0DECE1F920F920FB60F92F4
:1028A00011242F933F938F939F93AF93BF93809166
:1028B000350690913606A0913706B09138063091D2
:1028C000340623E0230F2D3720F40196A11DB11DFE
:1028D00005C026E8230F0296A11DB11D20933406E2
:1028E0008093350690933606A0933706B09338064A
:1028F0008091390690913A06A0913B06B0913C0632
:102900000196A11DB11D8093390690933A06A093BC
:102910003B06B0933C06BF91AF919F918F913F9141
:102920002F910F900FBE0F901F9018952FB7F8940E
:102930006091350670913606809137069091380681
:102940002FBF08953FB7F8948091390690913A06C9
:10295000A0913B06B0913C0626B5A89B05C02F3F31
:1029600019F00196A11DB11D3FBF6627782F892F51
:102970009A2F620F711D811D911D42E0660F771F16
:10298000881F991F4A95D1F70895CF92DF92EF9251
:10299000FF92CF93DF936B017C01D4DFEB01C11475
:1029A000D104E104F10479F06AD5CCDF6C1B7D0B16
:1029B000683E7340A0F381E0C81AD108E108F1082D
:1029C000C851DC4FECCFDF91CF91FF90EF90DF90BB
:1029D000CF900895019739F0880F991F880F991F9C
:1029E00002970197F1F70895789484B5826084BDC9
:1029F00084B5816084BD85B5826085BD85B5816003
:102A000085BDEEE6F0E0808181608083E1E8F0E062
:102A10001082808182608083808181608083E0E891
:102A2000F0E0808181608083E1EBF0E08081846070
:102A30008083E0EBF0E0808181608083E1E9F0E079
:102A4000808182608083808181608083E0E9F0E022
:102A5000808181608083E1EAF0E080818260808310
:102A6000808181608083E0EAF0E080818160808302
:102A7000E1E2F1E0808182608083808181608083F7
:102A8000E0E2F1E0808181608083EAE7F0E080812C
:102A90008460808380818260808380818160808384
:102AA0008081806880831092C1000895863308F089
:102AB000865320917B00982F9870277F922B9093BC
:102AC0007B00877020910D0290E4299F90011124D2
:102AD000822B80937C0080917A00806480937A00BE
:102AE00080917A0086FDFCCF80917800209179005A
:102AF00090E0922B08951F93CF93DF93182FEB0153
:102B000061E00FD1209711F460E004C0CF3FD10500
:102B100031F461E0812FDF91CF911F913BC1E12F13
:102B2000F0E0E05BFE4F449150E0FA013197E23172
:102B3000F10508F09AC0EC57FF4FFBC484B58068DC
:102B400084BDC7BD97C084B5806284BDC8BD92C036
:102B500080918000806880938000D0938900C0932A
:102B6000880088C080918000806280938000D0932C
:102B70008B00C0938A007EC0809180008860809323
:102B80008000D0938D00C0938C0074C08091B00001
:102B900080688093B000C093B3006CC08091B00097
:102BA00080628093B000C093B40064C080919000B4
:102BB000806880939000D0939900C09398005AC089
:102BC00080919000806280939000D0939B00C0938E
:102BD0009A0050C080919000886080939000D093BC
:102BE0009D00C0939C0046C08091A00080688093A7
:102BF000A0008091A0008F7B8093A000D093A900BB
:102C0000C093A80037C08091A00080628093A0008C
:102C1000D093AB00C093AA002DC08091A000886023
:102C20008093A000D093AD00C093AC0023C08091EE
:102C30002001806880932001D0932901C09328014E
:102C400019C080912001806280932001D0932B01D4
:102C5000C0932A010FC080912001886080932001D9
:102C6000D0932D01C0932C0105C0C038D1050CF0C4
:102C700050CF4ACFDF91CF911F91089590E0FC0192
:102C80003197E231F10508F04BC0EA56FF4F51C4CD
:102C9000809180008F7703C0809180008F7D80932A
:102CA0008000089580918000877FF9CF84B58F7769
:102CB00002C084B58F7D84BD08958091B0008F7768
:102CC00003C08091B0008F7D8093B0000895809103
:102CD00090008F7707C0809190008F7D03C0809116
:102CE0009000877F8093900008958091A0008F7757
:102CF00007C08091A0008F7D03C08091A000877FD6
:102D00008093A0000895809120018F7707C0809163
:102D100020018F7D03C080912001877F8093200157
:102D20000895CF93DF9390E0FC01EA56FE4F249183
:102D3000FC01E452FE4F8491882349F190E0880F12
:102D4000991FFC01EA5AFD4FA591B491845C9D4FF7
:102D5000FC01C591D4919FB7611108C0F8948C9182
:102D6000209582238C93888182230AC0623051F49B
:102D7000F8948C91322F309583238C938881822B09
:102D8000888304C0F8948C91822B8C939FBFDF9131
:102D9000CF9108950F931F93CF93DF931F92CDB7D9
:102DA000DEB7282F30E0F901E05BFE4F8491F90196
:102DB000EA56FE4F1491F901E452FE4F04910023AC
:102DC000C1F0882319F0698359DF6981E02FF0E0B1
:102DD000EE0FFF1FE45CFD4FA591B4919FB7F894EF
:102DE0008C91611103C01095812301C0812B8C93BC
:102DF0009FBF0F90DF91CF911F910F910895CF93B7
:102E0000DF93282F30E0F901E05BFE4F8491F90158
:102E1000EA56FE4FD491F901E452FE4FC491CC23FF
:102E200089F081112BDFEC2FF0E0EE0FFF1FEE5D3C
:102E3000FD4FA591B4912C912D2381E090E021F4D8
:102E400080E002C080E090E0DF91CF910895CF92C2
:102E5000DF92EF92FF920F931F93CF93DF9390E057
:102E6000FC01EA56FE4FD491FC01E452FE4F7491EE
:102E7000611102C0C0E001C0CD2FDA01C901BF70ED
:102E8000672F70E0660F771F6E5D7D4F00E010E0EA
:102E90009801FB01E590F490F70140814D234C131C
:102EA0001EC0680179014FEFC41AD40AE40AF40A7B
:102EB000081719072A073B0709F441C09701860143
:102EC000E8CF68017901FFEFCF1ADF0AEF0AFF0AA6
:102ED000081719072A073B0791F197018601FB01A3
:102EE000E590F490F70140814D234C13EACF801B0D
:102EF000910BA20BB30B20E030E0A901FB01E590A0
:102F0000F490F701F080FD22FC120AC0281739075F
:102F10004A075B07A1F02F5F3F4F4F4F5F4FEECF48
:102F2000A8E1B0E00CD3605F7F4F8F4F9F4F24E04C
:102F300096958795779567952A95D1F703C060E0B8
:102F400070E0CB01DF91CF911F910F91FF90EF9037
:102F5000DF90CF900895FC01818D228D90E0805C00
:102F60009F4F821B91098F7399270895FC01918DC2
:102F7000828D981731F0828DE80FF11D858D90E0DC
:102F800008958FEF9FEF0895FC01918D828D981722
:102F900061F0828DDF01A80FB11D5D968C91928D3D
:102FA0009F5F9F73928F90E008958FEF9FEF08953A
:102FB00089E799E1892B39F080E090E0892B19F0BD
:102FC00098D1811125C080E090E0892B41F080E00C
:102FD00090E0892B21F00E94000081111CC080E04C
:102FE00090E0892B41F080E090E0892B21F00E9455
:102FF0000000811113C080E090E0892BA1F080E0F7
:1030000090E0892B81F00E94000081110AC0089590
:103010000E940000D8CF0E940000E1CF0E94000073
:10302000EACF0C9400000895FC01848DDF01A80F05
:10303000B11DA35ABF4F2C91848D90E001968F73E0
:103040009927848FA689B7892C93A089B1898C91FF
:1030500080648C93938D848D981306C00288F389C5
:10306000E02D80818F7D80830895CF93DF93EC01E5
:10307000888D8823C1F0EA89FB89808185FD05C0A0
:10308000A889B9898C9186FD0EC00FB607FCF5CFD3
:10309000808185FFF2CFA889B9898C9185FFEDCF1A
:1030A000CE01C2DFE8CFDF91CF910895CF92DF92BA
:1030B000FF920F931F93CF93DF931F92CDB7DEB78D
:1030C0006C01DC015B969C915B975C968C915C97A4
:1030D000981307C05096ED91FC915197808185FD22
:1030E00031C0F601038D10E00F5F1F4F0F731127E2
:1030F000F02EF601848DF81210C00FB607FCF9CF40
:10310000D6015096ED91FC915197808185FFF1CFCA
:10311000C601698389DF6981ECCF838DE80FF11DDA
:10312000E35AFF4F6083D6015B960C935B975296F0
:10313000ED91FC91539780818062808381E0589665
:103140008C930DC0D6015696ED91FC9157976083F4
:103150005096ED91FC91519780818064808381E04D
:1031600090E00F90DF91CF911F910F91FF90DF9032
:10317000CF900895BF92CF92DF92EF92FF92CF93BC
:10318000DF93EC016A017B01B22EE889F98982E0C4
:103190008083411581EE58076105710599F060E063
:1031A00079E08DE390E0A701960185D121503109A6
:1031B000410951095695479537952795211580E185
:1031C000380790F0E889F989108260E874E88EE1A8
:1031D00090E0A70196016FD12150310941095109B1
:1031E0005695479537952795EC85FD853083EE8577
:1031F000FF852083188EEC89FD89B082EA89FB89DE
:10320000808180618083EA89FB89808188608083F6
:10321000EA89FB89808180688083EA89FB898081D3
:103220008F7D8083DF91CF91FF90EF90DF90CF90E3
:10323000BF9008951F920F920FB60F9211240BB6F4
:103240000F922F938F939F93EF93FF93E0914D06EF
:10325000F0914E068081E0915306F091540682FD74
:1032600012C09081809156068F5F8F732091570610
:10327000821751F0E0915606F0E0E35CF94F958F2C
:103280008093560601C08081FF91EF919F918F91AD
:103290002F910F900BBE0F900FBE0F901F9018959F
:1032A0001F920F920FB60F9211240BB60F922F930D
:1032B0003F934F935F936F937F938F939F93AF93BE
:1032C000BF93EF93FF938DE396E0AEDEFF91EF9116
:1032D000BF91AF919F918F917F916F915F914F912E
:1032E0003F912F910F900BBE0F900FBE0F901F902C
:1032F00018958DE396E02FDE21E0892B09F420E07C
:10330000822F08951092400610923F0688EE93E0B7
:10331000A0E0B0E08093410690934206A09343065C
:10332000B093440686ED92E090933E0680933D066E
:1033300085EC90E090934A068093490684EC90E0F7
:1033400090934C0680934B0680EC90E090934E0651
:1033500080934D0681EC90E09093500680934F0649
:1033600082EC90E0909352068093510686EC90E0B8
:103370009093540680935306109256061092570667
:103380001092580610925906089508952DDBFDDF1E
:103390000E94DE06C8EDD7E10E9491072097E1F375
:1033A00007DEFACFCF92DF92EF92FF920F931F9337
:1033B000CF93DF936C017A01EB01E60EF71E00E07C
:1033C00010E0CE15DF0561F06991D601ED91FC9119
:1033D0000190F081E02DC6011995080F191FF1CF5A
:1033E000C801DF91CF911F910F91FF90EF90DF9077
:1033F000CF9008954F925F926F927F92AF92BF925B
:10340000CF92DF92EF92FF920F931F93CF93DF93B0
:10341000CDB7DEB729013A01621B730B840B950B04
:103420002A893B894C895D892A193B094C095D0928
:103430002A8B3B8B4C8B5D8B9B01AC016A897B8912
:103440008C899D891DD0E418F50806091709A80183
:10345000970153D02A0D3B1D4C1D5D1DCA01B901BA
:10346000DF91CF911F910F91FF90EF90DF90CF9060
:10347000BF90AF907F906F905F904F9008950895A8
:10348000DB018F939F935BD0BF91AF91A29F800D83
:10349000911DA39F900DB29F900D11240895991B2B
:1034A00079E004C0991F961708F0961B881F7A953B
:1034B000C9F780950895A1E21A2EAA1BBB1BFD0136
:1034C0000DC0AA1FBB1FEE1FFF1FA217B307E40703
:1034D000F50720F0A21BB30BE40BF50B661F771F5B
:1034E000881F991F1A9469F760957095809590953B
:1034F0009B01AC01BD01CF010895052E97FB16F489
:1035000000940FD057FD05D0D6DF07FC02D046F45B
:1035100008C050954095309521953F4F4F4F5F4FD4
:10352000089590958095709561957F4F8F4F9F4F2F
:103530000895EE0FFF1F0590F491E02D19940DD022
:10354000A59F900DB49F900DA49F800D911D1124F7
:1035500008950790F691E02D1994A29FB001B39FB2
:10356000C001A39F700D811D1124911DB29F700D8C
:10357000811D1124911D0895CF93DF938230910511
:1035800010F482E090E0E091DC06F091DD0620E0AE
:1035900030E0A0E0B0E0309739F140815181481728
:1035A0005907B8F04817590771F482819381109731
:1035B00029F013969C938E9312972CC09093DD065E
:1035C0008093DC0627C02115310531F042175307DF
:1035D00018F0A901DB0101C0EF019A01BD01DF0173
:1035E0000280F381E02DD7CF21153105F9F0281B9A
:1035F000390B2430310580F48A819B816115710576
:1036000021F0FB019383828304C09093DD068093B5
:10361000DC06FE01329644C0FE01E20FF31F8193E7
:10362000919322503109398328833AC02091DA06D8
:103630003091DB06232B41F42091020230910302EA
:103640003093DB062093DA062091000230910102CC
:103650002115310541F42DB73EB740910402509138
:103660000502241B350BE091DA06F091DB06E21728
:10367000F307A0F42E1B3F0B2817390778F0AC0195
:103680004E5F5F4F2417350748F04E0F5F1F509372
:10369000DB064093DA068193919302C0E0E0F0E00C
:1036A000CF01DF91CF910895CF93DF93009709F475
:1036B00087C0FC01329713821282C091DC06D09140
:1036C000DD06209781F420813181280F391F8091F8
:1036D000DA069091DB068217930779F5F093DB0603
:1036E000E093DA066DC0DE0120E030E0AE17BF07E0
:1036F00050F412964D915C9113979D01411551051F
:1037000009F1DA01F3CFB383A28340815181840FA1
:10371000951F8A179B0771F48D919C911197840FC7
:10372000951F02969183808312968D919C91139799
:10373000938382832115310529F4F093DD06E0930C
:10374000DC063EC0D9011396FC93EE9312974D917F
:103750005D91A40FB51FEA17FB0779F48081918171
:10376000840F951F0296D90111969C938E938281A6
:10377000938113969C938E931297E0E0F0E08A81F8
:103780009B81009719F0FE01EC01F9CFCE01029662
:1037900028813981820F931F2091DA063091DB0650
:1037A0002817390769F4309729F41092DD06109232
:1037B000DC0602C013821282D093DB06C093DA06C5
:1037C000DF91CF910895FB01DC014150504048F05A
:1037D00001900D920020C9F701C01D924150504048
:1037E000E0F70895FC0181E090E00190061609F4ED
:1037F000CF010020D1F701970895FB015191552386
:10380000A9F0BF01DC014D9145174111E1F759F4D1
:10381000CD010190002049F04D9140154111C9F3AF
:10382000FB014111EFCF81E090E001970895F894FA
:02383000FFCFC8
:103832000000DE06800001000000FF130001556E4B
:103842006B6E6F776E2070696E206D6F64650073AA
:103852006B657463685F6D61793135612E696E6F76
:10386200004932432052656164204572726F723A98
:1038720020546F6F206D616E7920627974657320B8
:1038820072656365697665640049324320526561F9
:1038920064204572726F723A20546F6F20666577AA
:1038A2002062797465732072656365697665640068
:1038B20031302D6269742061646472657373696E5C
:1038C20067206D6F6465206973206E6F742079655F
:1038D2007420737570706F7274656400746F6F20FA
:1038E2006D616E7920717565726965730000000003
:1038F20000930E670E3C0E440E570E660E2E63703A
:103902007000000000005618D219AB17C417B61782
:02391200351866
:00000001FF
